:020000040800F2
:10C0000000000220DDEB000895E2000845E1000891
:10C010009DE20008A5E20008ADE200080000000073
:10C02000000000000000000000000000910D010869
:10C03000B5E2000800000000E10F0108C3E20008BB
:10C040002DEC00082DEC00082DEC00082DEC00086C
:10C050002DEC00082DEC000835D800082DEC000868
:10C060002DEC00082DEC00082DEC00082DEC00084C
:10C070002DEC00082DEC00082DEC00082DEC00083C
:10C080002DEC00082DEC00082DEC00082DEC00082C
:10C090002DEC00082DEC00082DEC00087DD80008E0
:10C0A0002DEC00082DEC00082DEC00082DEC00080C
:10C0B00059DD00082DEC00082DEC00082DEC0008DF
:10C0C0002DEC00082DEC00082DEC00082DEC0008EC
:10C0D0002DEC00082DEC000815E000082DEC000800
:10C0E000C5D800082DEC00082DEC00082DEC000848
:10C0F0002DEC00082DEC00082DEC00082DEC0008BC
:10C100002DEC00082DEC00082DEC00082DEC0008AB
:10C110002DEC00082DEC00082DEC00082DEC00089B
:10C1200069D500082DEC00082DEC00082DEC000866
:10C130002DEC000800000000000000002DEC0008BD
:10C140002DEC00082DEC00082DEC00082DEC00086B
:10C150002DEC00082DEC00082DEC00082DEC00085B
:10C160002DEC00082DEC00082DEC00082DEC00084B
:10C170002DEC00082DEC00082DEC0008000000005C
:10C18000000000002DEC000800000000000000008E
:10C190002DEC000800000000000000002DEC00085D
:10C1A0000000000000000000000000002DEC00086E
:10C1B0002DEC00082DEC00082DEC00082DEC0008FB
:04C1C0002DEC00085A
:10C1D00010B5054C237833B9044B13B10448AFF3C1
:10C1E00000800123237010BDD40100200000000056
:10C1F000A04C010808B5034B1BB103490348AFF33A
:10C20000008008BD00000000D8010020A04C0108FB
:10C2100010F8012B11F8013B012A28BF9A42F7D0F0
:10C22000D01A70470000000000000000000000006D
:10C2300001F0FF01102A2BDB10F0070F08D010F8D7
:10C24000013B013A8B422DD010F0070F42B3F6D1DB
:10C25000F0B441EA012141EA014122F007047FF0F4
:10C2600000070023F0E80256083C85EA010586EA4B
:10C27000010685FA47F5A3FA87F586FA47F6A5FA87
:10C2800087F68EB9EED1F0BC01F0FF0102F0070293
:10C2900032B110F8013B013A83EA010313B1F8D13E
:10C2A0000020704701387047002D06BF354603381F
:10C2B000073815F0010F07D1013015F4807F02BF58
:10C2C000013015F4C03F0130F0BC0138704700BFA9
:10C2D000034613F8012B002AFBD1181A01387047C6
:10C2E00081F0004102E000BF83F0004330B54FEA27
:10C2F00041044FEA430594EA050F08BF90EA020F94
:10C300001FBF54EA000C55EA020C7FEA645C7FEA26
:10C31000655C00F0E2804FEA5454D4EB5555B8BF49
:10C320006D420CDD2C4480EA020281EA030382EABA
:10C33000000083EA010180EA020281EA0303362D4C
:10C3400088BF30BD11F0004F4FEA01314FF4801C1F
:10C350004CEA113102D0404261EB410113F0004F31
:10C360004FEA03334CEA133302D0524263EB4303E8
:10C3700094EA050F00F0A780A4F10104D5F1200E86
:10C380000DDB02FA0EFC22FA05F2801841F10001E1
:10C3900003FA0EF2801843FA05F359410EE0A5F1B5
:10C3A00020050EF1200E012A03FA0EFC28BF4CF0E6
:10C3B000020C43FA05F3C01851EBE37101F000459C
:10C3C00007D54FF0000EDCF1000C7EEB00006EEBA9
:10C3D0000101B1F5801F1BD3B1F5001F0CD3490833
:10C3E0005FEA30004FEA3C0C04F101044FEA44528A
:10C3F00012F5800F80F09A80BCF1004F08BF5FEA11
:10C40000500C50F1000041EB045141EA050130BDF0
:10C410005FEA4C0C404141EB0101013C28BFB1F502
:10C42000801FE9D291F0000F04BF01460020B1FA4D
:10C4300081F308BF2033A3F10B03B3F120020CDA20
:10C440000C3208DD02F1140CC2F10C0201FA0CF0FE
:10C4500021FA02F10CE002F11402D8BFC2F1200C63
:10C4600001FA02F120FA0CFCDCBF41EA0C01904019
:10C47000E41AA2BF01EB0451294330BD6FEA040462
:10C480001F3C1CDA0C340EDC04F11404C4F120024D
:10C4900020FA04F001FA02F340EA030021FA04F35F
:10C4A00045EA030130BDC4F10C04C4F1200220FAB6
:10C4B00002F001FA04F340EA0300294630BD21FAF4
:10C4C00004F0294630BD94F0000F83F4801306BFBA
:10C4D00081F480110134013D4EE77FEA645C18BFAE
:10C4E0007FEA655C29D094EA050F08BF90EA020F45
:10C4F00005D054EA000C04BF1946104630BD91EA3D
:10C50000030F1EBF0021002030BD5FEA545C05D13F
:10C510004000494128BF41F0004130BD14F580047E
:10C520003CBF01F5801130BD01F0004545F0FE41F2
:10C5300041F470014FF0000030BD7FEA645C1ABF27
:10C54000194610467FEA655C1CBF0B46024650EA5E
:10C55000013406BF52EA033591EA030F41F400218A
:10C5600030BD00BF90F0000F04BF0021704730B510
:10C570004FF4806404F132044FF000054FF00001E5
:10C5800050E700BF90F0000F04BF0021704730B5A6
:10C590004FF4806404F1320410F0004548BF40427B
:10C5A0004FF000013EE700BF42004FEAE2014FEAD0
:10C5B00031014FEA02701FBF12F07F4393F07F4FAB
:10C5C00081F06051704732F07F4208BF704793F0AE
:10C5D0007F4F04BF41F40021704730B54FF46074C1
:10C5E00001F0004521F000411CE700BF50EA0102C4
:10C5F00008BF704730B54FF000050AE050EA01026D
:10C6000008BF704730B511F0004502D5404261EBDC
:10C6100041014FF4806404F132045FEA915C3FF41D
:10C62000D8AE4FF003025FEADC0C18BF03325FEABA
:10C63000DC0C18BF033202EBDC02C2F1200300FA6B
:10C6400003FC20FA02F001FA03FE40EA0E0021FA90
:10C6500002F11444BDE600BF70B54FF0FF0C4CF47E
:10C66000E06C1CEA11541DBF1CEA135594EA0C0F30
:10C6700095EA0C0F00F0DEF82C4481EA030621EA6B
:10C680004C5123EA4C5350EA013518BF52EA0335A6
:10C6900041F4801143F4801338D0A0FB02CE4FF058
:10C6A0000005E1FB02E506F00042E0FB03E54FF088
:10C6B0000006E1FB03569CF0000F18BF4EF0010E80
:10C6C000A4F1FF04B6F5007F64F5407404D25FEA7C
:10C6D0004E0E6D4146EB060642EAC62141EA55512F
:10C6E0004FEAC52040EA5E504FEACE2EB4F1FD0C71
:10C6F00088BFBCF5E06F1ED8BEF1004F08BF5FEAEF
:10C70000500E50F1000041EB045170BD06F00046A0
:10C7100046EA010140EA020081EA0301B4EB5C044D
:10C72000C2BFD4EB0C0541EA045170BD41F4801145
:10C730004FF0000E013C00F3AB8014F1360FDEBF6A
:10C74000002001F0004170BDC4F10004203C35DA46
:10C750000C341BDC04F11404C4F1200500FA05F3C9
:10C7600020FA04F001FA05F240EA020001F000426A
:10C7700021F0004110EBD37021FA04F642EB0601E0
:10C780005EEA430E08BF20EAD37070BDC4F10C040A
:10C79000C4F1200500FA04F320FA05F001FA04F2CE
:10C7A00040EA020001F0004110EBD37041F10001BA
:10C7B0005EEA430E08BF20EAD37070BDC4F12005C5
:10C7C00000FA05F24EEA020E20FA04F301FA05F22D
:10C7D00043EA020321FA04F001F0004121FA04F2D5
:10C7E00020EA020000EBD3705EEA430E08BF20EAA5
:10C7F000D37070BD94F0000F0FD101F000464000DF
:10C8000041EB010111F4801F08BF013CF7D041EA60
:10C81000060195F0000F18BF704703F00046520064
:10C8200043EB030313F4801F08BF013DF7D043EA35
:10C830000603704794EA0C0F0CEA135518BF95EAEB
:10C840000C0F0CD050EA410618BF52EA4306D1D172
:10C8500081EA030101F000414FF0000070BD50EA91
:10C86000410606BF1046194652EA430619D094EA1B
:10C870000C0F02D150EA013613D195EA0C0F05D105
:10C8800052EA03361CBF104619460AD181EA030159
:10C8900001F0004141F0FE4141F470014FF0000011
:10C8A00070BD41F0FE4141F4780170BD70B54FF0AC
:10C8B000FF0C4CF4E06C1CEA11541DBF1CEA13552C
:10C8C00094EA0C0F95EA0C0F00F0A7F8A4EB05040E
:10C8D00081EA030E52EA03354FEA013100F0888005
:10C8E0004FEA03334FF0805545EA131343EA1263CE
:10C8F0004FEA022245EA111545EA10654FEA002683
:10C900000EF000419D4208BF964244F1FD0404F53B
:10C91000407402D25B084FEA3202B61A65EB030597
:10C920005B084FEA32024FF480104FF4002CB6EB54
:10C93000020E75EB030E22BFB61A754640EA0C00D4
:10C940005B084FEA3202B6EB020E75EB030E22BF14
:10C95000B61A754640EA5C005B084FEA3202B6EB55
:10C96000020E75EB030E22BFB61A754640EA9C0014
:10C970005B084FEA3202B6EB020E75EB030E22BFE4
:10C98000B61A754640EADC0055EA060E18D04FEAA2
:10C99000051545EA16754FEA06164FEAC30343EA42
:10C9A00052734FEAC2025FEA1C1CC0D111F4801F0F
:10C9B0000BD141EA00014FF000004FF0004CB6E708
:10C9C00011F4801F04BF01430020B4F1FD0C88BFA7
:10C9D000BCF5E06F3FF6AFAEB5EB030C04BFB6EBB2
:10C9E000020C5FEA500C50F1000041EB045170BDA5
:10C9F0000EF0004E4EEA113114EB5C04C2BFD4EBD2
:10CA00000C0541EA045170BD41F480114FF0000E55
:10CA1000013C90E645EA060E8DE60CEA135594EAD1
:10CA20000C0F08BF95EA0C0F3FF43BAF94EA0C0FD4
:10CA30000AD150EA01347FF434AF95EA0C0F7FF449
:10CA400025AF104619462CE795EA0C0F06D152EA9D
:10CA500003353FF4FDAE1046194622E750EA410681
:10CA600018BF52EA43067FF4C5AE50EA41047FF492
:10CA70000DAF52EA43057FF4EBAE12E74FF0FF3CF7
:10CA800006E000BF4FF0010C02E000BF4FF0010CC8
:10CA90004DF804CD4FEA410C7FEA6C5C4FEA430C41
:10CAA00018BF7FEA6C5C1BD001B050EA410C0CBF90
:10CAB00052EA430C91EA030F02BF90EA020F0020F2
:10CAC000704710F1000F91EA030F58BF994208BF59
:10CAD00090422CBFD8176FEAE37040F00100704716
:10CAE0004FEA410C7FEA6C5C02D150EA013C07D16D
:10CAF0004FEA430C7FEA6C5CD6D152EA033CD3D0B8
:10CB00005DF8040B704700BF8446104662468C46B1
:10CB10001946634600E000BF01B5FFF7B7FF0028E4
:10CB200048BF10F1000F01BD4DF808EDFFF7F4FF0D
:10CB30000CBF012000205DF808FB00BF4DF808ED98
:10CB4000FFF7EAFF34BF012000205DF808FB00BFBB
:10CB50004DF808EDFFF7E0FF94BF012000205DF8DD
:10CB600008FB00BF4DF808EDFFF7CEFF94BF012092
:10CB700000205DF808FB00BF4DF808EDFFF7C4FF8B
:10CB800034BF012000205DF808FB00BF4FEA410CD4
:10CB90007FEA6C5C02D150EA013C0AD14FEA430CB7
:10CBA0007FEA6C5C02D152EA033C02D14FF00000F4
:10CBB00070474FF0010070474FEA410212F5001232
:10CBC00015D211D56FF47873B3EB625212D94FEAD4
:10CBD000C12343F0004343EA505311F0004F23FABE
:10CBE00002F018BF404270474FF00000704750EA13
:10CBF000013005D111F0004008BF6FF000407047D0
:10CC00004FF00000704700BF80B487B000AFF860FD
:10CC1000B9601346FB71104B7B6108E07B69013BF7
:10CC20007B617B69002B02D14FF0FF330DE0FB6885
:10CC30001A68BB681340002B14BF01230023DBB22A
:10CC40001A46FB799A42E9D1002318461C37BD46A3
:10CC50005DF8047B704700BFA086010080B584B0FA
:10CC600000AF03463960FB711346BB803B68002B65
:10CC70005FD0BB88002B5CD0002202213048FFF738
:10CC8000C3FF0346002B56DB2E4B1B682D4A43F493
:10CC900080731360012201212B48FFF7B5FF034683
:10CCA000002B38DB274B5B69FB79264A5B0013615D
:10CCB000012202212448FFF7A7FF0346002B2CDBAB
:10CCC000204B5B691F4B9B690023FB8110E0012215
:10CCD00080211D48FFF798FF0346002B1FDBFB89CF
:10CCE0003A6813441A78174B1A61FB890133FB81A8
:10CCF000FA89BB889A42EAD3012204211248FFF73D
:10CD000083FF0346002B0CDB0E4B1B680D4A43F4DC
:10CD10000073136010E000BF04E000BF02E000BF3A
:10CD200000E000BF074B1B68064A43F40073136022
:10CD300002E000BF00E000BF1037BD4680BD00BF6D
:10CD400018580040005800401458004080B483B088
:10CD500000AF00237B6002E07B6801337B607B686F
:10CD600042F20F729342F7D900BF00BF0C37BD46A5
:10CD70005DF8047B7047000080B500AF334B5B6CFF
:10CD8000324A43F480735364314B5B68304A23F476
:10CD9000403353602E4B5B682D4A43F4803353601D
:10CDA0002B4B5B682A4A43F400035360294B002253
:10CDB0005A60284B00229A60264B5B68254A43F450
:10CDC00080735360234B9B68224A43F480739360C3
:10CDD000204B9B681F4A43F4007393601D4B9B6874
:10CDE0001C4A43F0020393601A4B9B68194A23F4D0
:10CDF00080639360174BDB68164A23F47C03D3608F
:10CE0000144BDB68134A43F41003D360114BDB6A05
:10CE1000104A23F47003D3620E4BDB6A0D4A43F4CD
:10CE20008013D3620B4B4FF40C725A63094B9B680F
:10CE3000084A43F001039360FFF788FF054B9B68A6
:10CE4000044A43F00103936000BF80BD00380240F4
:10CE5000002301400020014080B483B000AF0346AE
:10CE6000FB80FB88002B02D1DFED0D7A10E00D4B2B
:10CE70001B8807EE903AF8EE676AFB8807EE903A57
:10CE8000B8EE677AC6EE877A9FED077A67EE877A03
:10CE9000B0EE670A0C37BD465DF8047B704700BFF3
:10CEA000000000002A7AFF1F3333534080B487B05C
:10CEB00000AF034687ED000AFB80D7ED007AF5EE60
:10CEC000C07AF1EE10FA02D8DFED277A44E0FB8851
:10CED00007EE903AB8EEE77AD7ED007A27EE277A98
:10CEE000DFED226AC7EE267AC7ED057A204B1B8854
:10CEF00007EE903AB8EEE77AD7ED007A27EE277A78
:10CF0000DFED1A6AC7EE267AC7ED047A194B1B8843
:10CF100007EE903AB8EEE77AD7ED007A27EE277A57
:10CF2000DFED126AC7EE267AC7ED037A97ED057A30
:10CF3000D7ED047A77EE677A9FED0F7A67EE876A0E
:10CF400097ED037AD7ED047A37EE677AC6EE877AE3
:10CF5000B3EE0E7A77EE877AB0EE670A1C37BD46DD
:10CF60005DF8047B704700BF0000000000F07F45C3
:10CF70002C7AFF1F2E7AFF1F0000A04280B500AF61
:10CF8000024800F0FFFF00BF80BD00BFB84C0108A1
:10CF9000B0B5A2B002AF03F041F803460C4AA2FBC1
:10CFA00003239C0904F014FA054603F059F80346DC
:10CFB0003846019300952346064A802104F0FAFF83
:10CFC0003B46184600F0DEFF00BF8037BD46B0BDCF
:10CFD000D34D62108C4F010880B500AF034800F0BC
:10CFE000D1FF034800F0CEFF00BF80BDD84F01083D
:10CFF000E44F010880B590B000AF04F0E9F90346B2
:10D000003846064A402104F0D5FF3B46184600F05A
:10D01000B9FF00BF4037BD4680BD00BF10500108BA
:10D0200080B590B000AF02F0F9FF0346084AA2FBBA
:10D0300003239B093846074A402104F0BBFF3B46C7
:10D04000184600F09FFF00BF4037BD4680BD00BFBF
:10D05000D34D621028500108B0B5A0B000AF01F068
:10D060003BF8034683F00103DBB2002B03D02148D9
:10D0700000F088FF3BE0204B07F144041D460FCD34
:10D080000FC40FCD0FC40FCD0FC495E8070084E87F
:10D0900007001A4800F076FF7B6E381D184A4021C1
:10D0A00004F088FF3B1D184600F06CFF3B6E381DF6
:10D0B000144A402104F07EFF3B1D184600F062FF39
:10D0C000FB6E381D104A402104F074FF3B1D1846CA
:10D0D00000F058FF3B6F381D0C4A402104F06AFFF6
:10D0E0003B1D184600F04EFF094800F04BFF80370B
:10D0F000BD46B0BD3C500108004400205850010816
:10D1000074500108885001089C500108B050010873
:10D11000C450010880B500AF00F0F2FF024800F0F3
:10D1200031FF00BF80BD00BFDC50010880B592B068
:10D1300000AF00F04DFD034687F8473097F84730C1
:10D14000184600F051FD0346381D064A402104F000
:10D1500031FF3B1D184600F015FF00BF4837BD46A4
:10D1600080BD00BFF4500108B0B5A0B004AF194BAA
:10D170001B88A7F86E30174B5B88A7F86C30B7F8A0
:10D180006C301846FFF768FE87ED1A0AB7F86E3064
:10D1900097ED1A0A1846FFF789FE87ED190A786E8F
:10D1A000FFF702FA04460D46B86EFFF7FDF9024696
:10D1B0000B46381DCDE90223CDE90045064A602122
:10D1C00004F0F8FE3B1D184600F0DCFE00BF70378F
:10D1D000BD46B0BDF00100200851010880B58CB0FB
:10D1E00000AF78607B68002B30D005221949786841
:10D1F00004F08FFF0346002B05D100F023FC1648F6
:10D2000000F0C0FE23E003221449786804F081FF97
:10D210000346002B1BD107F10C0307F12C02104928
:10D22000786804F0FDFE0346022B0BD1FB6ADBB2EB
:10D2300007F10C021146184601F09CFB094800F06A
:10D24000A1FE04E0084800F09DFE00E000BF30377A
:10D25000BD4680BD285101083051010840510108E8
:10D2600044510108545101086C51010880B584B043
:10D2700000AF78607B68002B31D00F23FB731A4915
:10D280007868FEF7C5FF0346002B02D10023FB732D
:10D2900012E016497868FEF7BBFF0346002B02D167
:10D2A0000523FB7308E012497868FEF7B1FF0346D7
:10D2B000002B01D10D23FB73FB7B0F2B03D10D48FA
:10D2C00000F060FE0CE00C4B186807F10F01002322
:10D2D000002201F06FFE094800F054FE00E000BF9C
:10D2E0001037BD4680BD00BF8C5101089051010828
:10D2F00098510108A051010864050020B4510108AB
:10D3000080B584B000AF78604249786804F026FFA9
:10D31000F8604149002004F021FFB860FB68002B51
:10D3200073D03E49F868FEF773FF0346002B02D125
:10D33000FFF724FE6AE03A49F868FEF769FF034602
:10D34000002B02D1FFF724FE60E03649F868FEF7B3
:10D350005FFF0346002B02D1FFF73EFE56E0324945
:10D36000F868FEF755FF0346002B02D1FFF742FE97
:10D370004CE02E49F868FEF74BFF0346002B02D124
:10D38000FFF74EFE42E02A49F868FEF741FF0346E8
:10D39000002B02D1FFF760FE38E02649F868FEF75F
:10D3A00037FF0346002B02D1FFF7B4FE2EE02249DF
:10D3B000F868FEF72DFF0346002B02D1FFF7B6FEFB
:10D3C00024E01E49F868FEF723FF0346002B02D134
:10D3D000FFF7CAFE1AE01A49F868FEF719FF03467C
:10D3E000002B03D1B868FFF7F9FE0FE01549F86884
:10D3F000FEF70EFF0346002B03D1B868FFF736FF98
:10D4000004E0114800F0BEFD00E000BF1037BD464B
:10D4100080BD00BFCC510108D0510108D451010892
:10D42000DC510108E0510108E8510108F051010800
:10D43000F851010800520108085201081052010871
:10D44000145201081C5201082452010880B483B010
:10D4500000AF0346FB7197F90730002B0BDBFB791C
:10D4600003F01F02074997F907305B09012000FA12
:10D4700002F241F8232000BF0C37BD465DF8047B63
:10D48000704700BF00E100E080B483B000AF034606
:10D490003960FB7197F90730002B0ADB3B68DAB281
:10D4A0000C4997F907301201D2B20B4483F80023DC
:10D4B0000AE03B68DAB20849FB7903F00F03043B4A
:10D4C0001201D2B20B441A7600BF0C37BD465DF88C
:10D4D000047B704700E100E000ED00E080B500AFA4
:10D4E0001B4B1B6B1A4A43F480031363194B1B68D5
:10D4F000184A23F00103136000BF164B1B6803F0AA
:10D500000103002BF9D1134B134A9A60114B134AB4
:10D51000DA60104B40225A60114B3D229A600D4B4D
:10D52000104A1A600B4B1B680A4A23F0C0031360B1
:10D53000084B1B68074A43F001031360072138209A
:10D54000FFF7A2FF3820FFF781FF00BF80BD00BFBB
:10D5500000380240106402404C200140F0010020DD
:10D5600000640240102D020080B582B000AF00239D
:10D570007B60174B1B6803F02003002B19D0144B62
:10D5800020229A60134B1B680133124A1360114B1F
:10D590001B68632B0DD90F4B00221A600E4B1B68C2
:10D5A000002B06D00C4B1B683A1D1146184603F0A1
:10D5B00093FA7B68002B07D0084B4FF080521A601B
:10D5C000BFF34F8FBFF36F8F00BF0837BD4680BDDD
:10D5D00000640240700200206805002004ED00E0B5
:10D5E00080B400AF094BDB68084A43F08073D36016
:10D5F000074B00225A60064B1B68054A43F00103A3
:10D60000136000BFBD465DF8047B7047F0ED00E09D
:10D61000001000E080B400AF0B4B1B680A4A43F0D7
:10D6200001031360094B1B68084A23F4406313602D
:10D63000064B1B68054A43F48063136000BFBD4678
:10D640005DF8047B704700BF3038024000000240A4
:10D6500080B483B000AF0346FB7197F90730002B0D
:10D660000BDBFB7903F01F02074997F907305B09D1
:10D67000012000FA02F241F8232000BF0C37BD461A
:10D680005DF8047B704700BF00E100E080B483B028
:10D6900000AF03463960FB7197F90730002B0ADBB6
:10D6A0003B68DAB20C4997F907301201D2B20B4449
:10D6B00083F800230AE03B68DAB20849FB7903F0FB
:10D6C0000F03043B1201D2B20B441A7600BF0C3791
:10D6D000BD465DF8047B704700E100E000ED00E02E
:10D6E00080B500AF4D4B1B6B4C4A43F001031363F5
:10D6F0004A4B1B6B494A43F002031363474B1B6BB6
:10D70000464A43F004031363454B1B68444A23F025
:10D7100003031360424BDB68414A23F00303D360E9
:10D720003F4BDB683E4A43F00103D3603D4B1B682F
:10D730003C4A23F4406313603A4BDB68394A23F4D4
:10D740004063D360374BDB68364A43F48063D36071
:10D75000354B1B68344A23F040631360324BDB685F
:10D76000314A23F04063D3602F4BDB682E4A43F0ED
:10D770008063D360294B5B6C284A43F48043536435
:10D780002A4B9B68294A23F00F039360274BDB68E1
:10D79000264A23F0F003D360244BDB68234A43F08E
:10D7A0001003D360214B5B69204A23F0F0035361DF
:10D7B0001E4B5B691D4A43F0200353611C4B1B68E1
:10D7C0001B4A43F4005343F021031360184B9B683A
:10D7D000174A43F4005343F021039360144BDB6872
:10D7E000134A23F4005323F02103D36008210620B9
:10D7F000FFF74CFF08211720FFF748FF08212820DA
:10D80000FFF744FF0620FFF723FF1720FFF720FF55
:10D810002820FFF71DFF00BF80BD00BF0038024079
:10D8200000000240000402400008024000380140AD
:10D83000003C014080B582B000AF00237B600D4BFF
:10D840005B6903F00103002B05D00A4B01225A61EA
:10D85000002001F031F97B68002B07D0064B4FF018
:10D8600080521A60BFF34F8FBFF36F8F00BF08372E
:10D87000BD4680BD003C014004ED00E080B582B0B3
:10D8800000AF00237B600D4B5B6903F02003002B8E
:10D8900005D00A4B20225A61052001F00DF97B6862
:10D8A000002B07D0064B4FF080521A60BFF34F8F0A
:10D8B000BFF36F8F00BF0837BD4680BD003C0140FD
:10D8C00004ED00E080B582B000AF00237B600E4B1A
:10D8D0005B6903F40053002B06D00B4B4FF400524E
:10D8E0005A610D2001F0E8F87B68002B07D0074B48
:10D8F0004FF080521A60BFF34F8FBFF36F8F00BF9E
:10D900000837BD4680BD00BF003C014004ED00E08B
:10D9100080B584B000AF0346FB7100233B73FB79F5
:10D920007B7307F10C03022219463D20FFF796F99D
:10D9300000BF1037BD4680BD80B584B000AF034640
:10D94000FB7140233B73FB797B7307F10C030222CD
:10D9500019463D20FFF782F900BF1037BD4680BD54
:10D9600080B400AF034B1B781846BD465DF8047BBE
:10D97000704700BF7402002080B582B000AF002362
:10D980007B6002E07B6801337B607B682B4A9342BB
:10D99000F8D9AE20FFF7BCFFD520FFF7B9FF8020F4
:10D9A000FFF7B6FFA820FFF7B3FF3F20FFF7B0FF58
:10D9B000D320FFF7ADFF0020FFF7AAFF4020FFF7BD
:10D9C000A7FF8D20FFF7A4FF1420FFF7A1FF202061
:10D9D000FFF79EFF0020FFF79BFFA120FFF798FFB6
:10D9E000C820FFF795FFDA20FFF792FF1220FFF71C
:10D9F0008FFF8120FFF78CFF7F20FFF789FFD92061
:10DA0000FFF786FFF120FFF783FFDB20FFF780FFA2
:10DA10004020FFF77DFFA420FFF77AFFA620FFF745
:10DA200077FFAF20FFF774FF054B01221A7000F05B
:10DA300009F800BF0837BD4680BD00BF9F860100C2
:10DA40007402002080B582B000AF174B1B7883F0C2
:10DA50000103DBB2002B22D10023FB711BE0FB7919
:10DA6000503BDBB21846FFF753FF0020FFF750FF93
:10DA70001020FFF74DFF0023BB7105E00020FFF7EA
:10DA80005BFFBB790133BB7197F90630002BF5DAE8
:10DA9000FB790133FB71FB79072BE0D900E000BF74
:10DAA0000837BD4680BD00BF7402002080B584B039
:10DAB00000AF03463960FB71254B1B7883F00103EF
:10DAC000DBB2002B40D1FB79072B3DD83B68002B04
:10DAD0003AD0FB79503BDBB21846FFF719FF002024
:10DAE000FFF716FF1020FFF713FF28E03B685A1CD2
:10DAF0003A601B78FB73FB7B1F2B02D9FB7B7A2BD5
:10DB000001D92023FB73FB7BA3F1200213469B006A
:10DB10001344104A1344BB600023BB7309E0BB7B72
:10DB2000BA6813441B781846FFF706FFBB7B013326
:10DB3000BB73BB7B042BF2D90020FFF7FDFE3B68D3
:10DB40001B78002BD2D100E000BF1037BD4680BD4E
:10DB500074020020FC54010880B582B000AF1A4B5B
:10DB60005B6F7B607B6803F00063002B03D0174B77
:10DB700001221A701DE07B6803F00053002B0CD0CB
:10DB800000F0AAFA0346002B03D0104B04221A70AF
:10DB90000FE00E4B03221A700BE07B6803F08053FA
:10DBA000002B03D0094B02221A7002E0074B00221F
:10DBB0001A70054B5B6F044A43F08073536700BFD4
:10DBC0000837BD4680BD00BF003802407502002006
:10DBD00080B400AF034B1B781846BD465DF8047B4C
:10DBE000704700BF7502002080B483B000AF0346C9
:10DBF000FB71FB79013B032B12D801A252F823F0F1
:10DC000011DC000815DC000819DC00081DDC000828
:10DC1000074B06E0074B04E0074B02E0074B00E030
:10DC2000074B18460C37BD465DF8047B704700BFB4
:10DC30004452010850520108605201086C52010818
:10DC40007852010880B483B000AF0346FB7197F9A6
:10DC50000730002B0BDBFB7903F01F02074997F914
:10DC600007305B09012000FA02F241F8232000BFCF
:10DC70000C37BD465DF8047B704700BF00E100E053
:10DC800080B483B000AF03463960FB7197F9073069
:10DC9000002B0ADB3B68DAB20C4997F90730120116
:10DCA000D2B20B4483F800230AE03B68DAB2084999
:10DCB000FB7903F00F03043B1201D2B20B441A7636
:10DCC00000BF0C37BD465DF8047B704700E100E003
:10DCD00000ED00E080B584B000AF78607B68002B79
:10DCE00033D01C4B1B6C1B4A43F0010313644AF2F4
:10DCF0000F43FB604FF4FA627B68B2FBF3F3013B26
:10DD0000BB604FF08042FB6893624FF08042BB687B
:10DD1000D3624FF0804300225A624FF08043DB68A9
:10DD20004FF0804243F00103D36005211C20FFF730
:10DD3000A7FF1C20FFF786FF4FF080431B684FF0C2
:10DD4000804243F00103136000E000BF1037BD467E
:10DD500080BD00BF0038024080B582B000AF4FF0F8
:10DD600080431B6903F00103002B1DD04FF080435B
:10DD70001B694FF0804223F0010313610E23FB71F6
:10DD800000233B600A4B18683A46F91D002301F056
:10DD900013FA3B68002B07D0064B4FF080521A60F5
:10DDA000BFF34F8FBFF36F8F00BF0837BD4680BDF5
:10DDB0006405002004ED00E080B483B000AF0346AA
:10DDC000FB7197F90730002B0BDBFB7903F01F0287
:10DDD000074997F907305B09012000FA02F241F880
:10DDE000232000BF0C37BD465DF8047B704700BFA1
:10DDF00000E100E080B483B000AF03463960FB71FE
:10DE000097F90730002B0ADB3B68DAB20C4997F927
:10DE100007301201D2B20B4483F800230AE03B68BA
:10DE2000DAB20849FB7903F00F03043B1201D2B2C6
:10DE30000B441A7600BF0C37BD465DF8047B704773
:10DE400000E100E000ED00E080B400AF144B1B6B7C
:10DE5000134A43F001031363124B1B68114A23F06A
:10DE6000F00313600F4B1B680E4A43F0A0031360CE
:10DE70000C4B9B680B4A43F0F0039360094B1B6A01
:10DE8000084A23F47F431362064B1B6A054A43F496
:10DE9000EE43136200BFBD465DF8047B704700BFD0
:10DEA000003802400000024080B582B000AF7860C8
:10DEB000174B1B6C164A43F400331364154BDB6895
:10DEC000144A23F40053D360124A13497B68B1FB10
:10DED000F3F393600F4BDB680E4A43F00C03D360FF
:10DEE0000C4BDB680B4A43F02003D360094BDB6823
:10DEF000084A43F40053D36007212620FFF77AFF36
:10DF00002620FFF759FF00BF0837BD4680BD00BF80
:10DF100000380240004400400024F40080B582B084
:10DF200000AF78600A4B0022A3F88020084B002243
:10DF3000A3F88220064B002283F88420FFF784FF99
:10DF40007868FFF7B1FF00BF0837BD4680BD00BF4E
:10DF50007802002080B483B000AF0346FB7100BF9D
:10DF6000074B1B6803F08003002BF9D0044AFB79B0
:10DF7000536000BF0C37BD465DF8047B704700BF9F
:10DF80000044004080B582B000AF78600DE07B684F
:10DF90001B780A2B02D10D20FFF7DCFF7B685A1C8F
:10DFA0007A601B781846FFF7D5FF7B681B78002B3B
:10DFB000EDD100BF00BF0837BD4680BD80B483B03F
:10DFC00000AF00BF124BB3F880309AB2104BB3F8D9
:10DFD00082309BB29A42F5D00D4BB3F882309BB29F
:10DFE0001A460B4B9B5CFB71094BB3F882309BB21A
:10DFF00001339BB203F07F039AB2054BA3F8822052
:10E00000FB7918460C37BD465DF8047B704700BFAE
:10E010007802002080B483B000AF184B1B6803F077
:10E020002003002B23D0154B5B68FB71144BB3F816
:10E0300080309BB201339BB203F07F03BB80104B57
:10E04000B3F882309BB2BA889A4204D10C4B0122B9
:10E0500083F884200BE00A4BB3F880309BB219465A
:10E06000074AFB795354064ABB88A2F8803000BFA8
:10E070000C37BD465DF8047B704700BF004400408C
:10E080007802002080B400AF0B4B45F255521A6065
:10E09000094B03225A60084B4FF4FA629A60064B10
:10E0A0004AF6AA221A60044B4CF6CC421A6000BF12
:10E0B000BD465DF8047B70470030004080B400AF7F
:10E0C000044B4AF6AA221A6000BFBD465DF8047BE5
:10E0D000704700BF0030004080B400AF064B1B68A3
:10E0E000064A93420CBF01230023DBB21846BD460B
:10E0F0005DF8047B704700BF00440020EFBEADDE3A
:10E1000080B500AF3C220021024803F0FAFF00BFB7
:10E1100080BD00BF0044002080B400AFBFF34F8F2C
:10E1200000BF064BDB6803F4E0620449044B134371
:10E13000CB60BFF34F8F00BF00BFFDE700ED00E0F5
:10E140000400FA051EF0040F0CBFEFF30880EFF394
:10E15000098000F001B800BF80B582B000AF7860E0
:10E16000244B1B68244A934203D0224B01225A605D
:10E1700004E0204B5B6801331E4A53601D4B1E4A6E
:10E180001A607B681B681B4A93607B685B68194A4E
:10E19000D3607B689B68174A13617B68DB68154A0C
:10E1A00053617B681B69134A93617B685B69114A01
:10E1B000D3617B689B690F4A13627B68DB690D4AF8
:10E1C00053620E4B9B6A0B4A93620C4BDB6A094A03
:10E1D000D3620A4B5B6B074A1363084B9B6B054A80
:10E1E0005363BFF34F8F00BFBFF36F8F00BFFFF7C5
:10E1F00093FF00BF00440020EFBEADDE00ED00E065
:10E2000080B485B000AFF860B9607A60FB68074AF7
:10E210001A60BB68064A1A607B6880221A6000BFD9
:10E220001437BD465DF8047B704700BF0003002033
:10E230006003002080B582B000AF00F015F94FF404
:10E24000E130FFF76BFEFFF7CBF9FFF785FC0F48D6
:10E25000FFF798FEFFF7DEF9FFF742FAFEF78CFDB5
:10E26000FFF73CF9FFF70EFF0948FFF78BFE00F0C0
:10E270000DF94FF0050383F31188BFF36F8FBFF3E0
:10E280004F8F7B6000BF00BFFDE700BF80520108D9
:10E29000A052010880B400AF00BFFDE780B400AF1A
:10E2A00000BFFDE780B400AF00BFFDE780B400AF62
:10E2B00000BFFDE780B400AF00BFBD465DF8047B42
:10E2C000704780B500AF00F0B3FC02F0FDF90346E3
:10E2D000012B01D002F0B8FE00BF80BD80B400AFBA
:10E2E00001231846BD465DF8047B704780B582B0B7
:10E2F00000AF7860396003F0D7FF034616221A603A
:10E300004FF0FF3318460837BD4680BD80B582B058
:10E3100000AF78604FF0FF317868FFF7E7FF00BF8C
:10E32000FDE780B586B000AFF860B9607A60002381
:10E330007B610AE0AFF300800146BB685A1CBA60FB
:10E34000CAB21A707B6901337B617A697B689A4231
:10E35000F0DB7B6818461837BD4680BD80B586B0B7
:10E3600000AFF860B9607A6000237B6109E0BB68A8
:10E370005A1CBA601B781846FFF7ECFD7B69013325
:10E380007B617A697B689A42F1DB7B6818461837B3
:10E39000BD4680BD80B483B000AF78604FF0FF33DE
:10E3A00018460C37BD465DF8047B704780B483B0D7
:10E3B00000AF786039603B684FF400525A60002328
:10E3C00018460C37BD465DF8047B704780B483B0B7
:10E3D00000AF7860012318460C37BD465DF8047B1A
:10E3E000704780B485B000AFF860B9607A600023F0
:10E3F00018461437BD465DF8047B704780B586B07B
:10E4000000AF7860144A154BD31A7B617B693B617E
:10E41000134B1B68002B02D1114B124A1A60104B90
:10E420001A687B6813443A699A4207D203F03CFFAA
:10E4300003460C221A604FF0FF3309E0084B1B68BB
:10E44000FB60074B1A687B681344054A1360FB683E
:10E4500018461837BD4680BD0000022000040000A9
:10E46000600500204044002080B400AF064BD3F884
:10E470008830054A43F47003C2F8883000BFBD46B7
:10E480005DF8047B704700BF00ED00E080B58EB002
:10E4900002AF002201210A2000F0FCFC03467C4A66
:10E4A00013607B4B1B68002B0BD14FF0050383F3EC
:10E4B0001188BFF36F8FBFF34F8FBB6200BF00BFE8
:10E4C000FDE7002217210A2000F0E4FC0346714A10
:10E4D0001360704B1B68002B0BD14FF0050383F3C7
:10E4E0001188BFF36F8FBFF34F8F7B6200BF00BFF8
:10E4F000FDE7012000F046FD0346674A1360664BC6
:10E500001B68002B0BD14FF0050383F31188BFF379
:10E510006F8FBFF34F8F3B6200BF00BFFDE75F48C7
:10E52000FFF730FD5E4B01930223009300234FF46D
:10E5300080725C495C4801F057FAF862FB6A012B73
:10E540000BD04FF0050383F31188BFF36F8FBFF338
:10E550004F8FFB6100BF00BFFDE700230193052340
:10E56000009300234FF480725049514801F03CFA67
:10E57000F862FB6A012B0BD04FF0050383F311887F
:10E58000BFF36F8FBFF34F8FBB6100BF00BFFDE7CD
:10E59000002301930423009300234FF400724549A4
:10E5A000454801F021FAF862FB6A012B0BD04FF0CD
:10E5B000050383F31188BFF36F8FBFF34F8F7B6128
:10E5C00000BF00BFFDE70023019303230093002356
:10E5D0004FF4007239493A4801F006FAF862FB6AD2
:10E5E000012B0BD04FF0050383F31188BFF36F8F1E
:10E5F000BFF34F8F3B6100BF00BFFDE700230193D6
:10E600000123009300234FF400722E492E4801F09D
:10E61000EBF9F862FB6A012B0BD04FF0050383F393
:10E620001188BFF36F8FBFF34F8FFB6000BF00BF38
:10E63000FDE7002301930323009300234FF480722E
:10E640002249234801F0D0F9F862FB6A012B0BD074
:10E650004FF0050383F31188BFF36F8FBFF34F8F24
:10E66000BB6000BF00BFFDE71A48FFF78BFC01F05D
:10E67000C7FB1948FFF786FC4FF0050383F31188A9
:10E68000BFF36F8FBFF34F8F7B6000BF00BFFDE70D
:10E69000640500207405002078050020C45201089C
:10E6A00068050020E4520108A9E70008E8520108C3
:10E6B0005DE70008F052010805E80008F45201087F
:10E6C00009EA0008FC52010805E9000804530108A2
:10E6D00095EB00080C5301082C53010880B400AFDF
:10E6E000054B1B6843F00103034A136000BFBD469E
:10E6F0005DF8047B704700BF6C05002080B400AF5C
:10E70000054B1B6843F00203034A136000BFBD467C
:10E710005DF8047B704700BF6C05002080B400AF3B
:10E72000054B1B6843F00403034A136000BFBD465A
:10E730005DF8047B704700BF6C05002080B400AF1B
:10E74000054B1B6843F00803034A136000BFBD4636
:10E750005DF8047B704700BF6C05002080B586B073
:10E7600000AF786041F288333B610223FB75386962
:10E7700001F010FBFB7D002B08D0FB7D013BFB75FE
:10E78000084B00221A60FFF799FC0AE0054B1B6852
:10E79000FB60044B00221A60FB680F2BE7D1FFF7E8
:10E7A0008DFCE4E76C05002080B586B000AF786092
:10E7B00001F07AFF0346114A1360C82001F0EAFA1B
:10E7C0004FF0FF31012002F03FF90D4B1B88FB8217
:10E7D0000B4B5B88BB82BB8A1846FEF73DFB87ED7F
:10E7E000040AFB8A97ED040A1846FEF75FFB87EDE3
:10E7F000030AFFF793FF00BFE2E700BF68050020B0
:10E80000F001002080B594B000AF78600023FB6475
:10E810002748FFF7B7FB2748FFF7B4FBFFF75EFF7A
:10E82000FFF7CCFB034687F84B3097F84B300D2BA6
:10E8300003D097F84B300A2B16D11F48FFF7A2FBE5
:10E8400007F10802FB6C134400221A70FB6C002BCA
:10E8500004D007F108031846FEF752FD0023FB64BD
:10E860001448FFF78FFB22E097F84B30082B03D0BA
:10E8700097F84B307F2B09D1FB6C002B06D0FB6C3B
:10E88000013BFB640D48FFF77DFB10E0FB6C3E2B6A
:10E89000C4D897F84B301846FFF75CFBFB6C5A1C4A
:10E8A000FA6450333B4497F84B2003F8482CB5E703
:10E8B000545301087453010880530108845301081C
:10E8C0000FB480B582B000AF0D4B1B684FF0FF3125
:10E8D000184600F0F1FD07F114037B607968386990
:10E8E00003F056FB064B186800230022002100F0BD
:10E8F00061FB00BF0837BD46BDE8804004B07047EB
:10E900007805002080B588B000AF78601648FFF722
:10E91000D7FFFFF731F8FFF723F8034683F0010331
:10E92000DBB2002B07D01148FFF7CAFF4FF0FF30D2
:10E9300001F030FAFAE7FFF785F80D4B1B6807F195
:10E9400008014FF0FF32184600F0D4FC0346012BBB
:10E95000F3D13A7A07F10803013319461046FFF75D
:10E96000A5F8FFF7EBFEE8E788530108A05301087C
:10E970007405002080B588B000AF03463960FB7194
:10E980000F4B1B68002B17D03B68002B14D0FB7972
:10E990003B7207F10803013315223968184603F06A
:10E9A000CAFB0023BB77064B186807F10801002358
:10E9B000002200F0FFFA00E000BF2037BD4680BD16
:10E9C000740500200FB480B582B000AF0D4B1B68FA
:10E9D0004FF0FF31184600F06FFD07F114037B6024
:10E9E0007968386903F0D4FA064B186800230022CE
:10E9F000002100F0DFFA00BF0837BD46BDE88040C7
:10EA000004B070477805002080B584B000AF78600E
:10EA10002348FFF7D7FF234B1B6807F10F014FF087
:10EA2000FF32184600F066FC0346012BF3D1FFF7D6
:10EA300065FEFB7B0E2B31D801A252F823F000BFFC
:10EA40007DEA00089DEA00089DEA00089DEA0008AA
:10EA50009DEA000885EA00089DEA00089DEA000892
:10EA60009DEA00089DEA00089DEA00089DEA00086A
:10EA70009DEA00088DEA000895EA00080A48FFF7B9
:10EA8000A1FF0CE00948FFF79DFF08E00848FFF7E9
:10EA900099FF04E00748FFF795FF00E000BFBAE7E1
:10EAA000CC53010864050020E85301080054010814
:10EAB0001C5401083454010880B586B000AF0346E9
:10EAC000FB7100233B610F23FB73FB790D2B18D0E7
:10EAD0000D2B19DC002B02D0052B03D014E00023F2
:10EAE000FB7314E001F0AAFA7861164B1B687A698F
:10EAF000D31A312B0AD9134A7B6913600523FB73A0
:10EB000004E00D23FB7302E000BF00E000BFFB7BCD
:10EB10000F2B13D00C4B186807F1100207F10F01EF
:10EB2000002300F049FB3B69002B07D0074B4FF057
:10EB300080521A60BFF34F8FBFF36F8F00BF18373B
:10EB4000BD4680BD700500206405002004ED00E096
:10EB50000FB480B582B000AF0D4B1B684FF0FF3192
:10EB6000184600F0A9FC07F114037B607968386946
:10EB700003F00EFA064B186800230022002100F073
:10EB800019FA00BF0837BD46BDE8804004B07047A1
:10EB90007805002080B582B000AF78604FF4FA703D
:10EBA00001F0F8F80A48FFF7D3FF0A20FFF792F8C0
:10EBB0000848FFF7CDFFFFF7A1FD0748FFF7C8FFA3
:10EBC000002001F057F800BF0837BD4680BD00BFE8
:10EBD000485401087854010890540108DFF834D0F3
:10EBE000FFF742FC0C480D490D4A002302E0D458BF
:10EBF000C4500433C4188C42F9D30A4A0A4C002387
:10EC000001E013600432A242FBD303F053FBFFF791
:10EC100011FB70470000022000000020D4010020FA
:10EC2000BC5A0108D401002000440020FEE7000087
:10EC300080B400AF064B1B781A46064B1B68134482
:10EC4000044A136000BFBD465DF8047B704700BFF7
:10EC5000040000207C05002080B483B000AF786001
:10EC60007B6803F108027B685A607B684FF0FF32D3
:10EC70009A607B6803F108027B68DA607B6803F1C5
:10EC800008027B681A617B6800221A6000BF0C379B
:10EC9000BD465DF8047B704780B483B000AF7860F8
:10ECA0007B6800221A6100BF0C37BD465DF8047B0B
:10ECB000704780B485B000AF786039607B685B686E
:10ECC000FB603B68FA685A60FB689A683B689A6028
:10ECD000FB689B683A685A60FB683A689A603B68D0
:10ECE0007A681A617B681B685A1C7B681A6000BFCF
:10ECF0001437BD465DF8047B704780B485B000AF23
:10ED0000786039603B681B68BB60BB68B3F1FF3F4C
:10ED100003D17B681B69FB600CE07B680833FB60F8
:10ED200002E0FB685B68FB60FB685B681B68BA68B5
:10ED30009A42F6D2FB685A683B685A603B685B6847
:10ED40003A689A603B68FA689A60FB683A685A6069
:10ED50003B687A681A617B681B685A1C7B681A607A
:10ED600000BF1437BD465DF8047B704780B485B0A2
:10ED700000AF78607B681B69FB607B685B687A68C2
:10ED800092689A607B689B687A6852685A60FB68F0
:10ED90005B687A689A4203D17B689A68FB685A601C
:10EDA0007B6800221A61FB681B685A1EFB681A60A8
:10EDB000FB681B6818461437BD465DF8047B704736
:10EDC00080B584B000AF786039607B68FB60FB6819
:10EDD000002B0BD14FF0050383F31188BFF36F8F26
:10EDE000BFF34F8FBB6000BF00BFFDE702F09CF890
:10EDF000FB681A68FB68DB6BF968096C01FB03F3BD
:10EE00001A44FB689A60FB6800229A63FB681A68E0
:10EE1000FB685A60FB681A68FB68DB6B013BF968AA
:10EE2000096C01FB03F31A44FB68DA60FB68FF22FC
:10EE300083F84420FB68FF2283F845203B68002BC1
:10EE400014D1FB681B69002B1AD0FB6810331846DD
:10EE500001F06AFA0346002B12D00D4B4FF080529E
:10EE60001A60BFF34F8FBFF36F8F09E0FB68103359
:10EE70001846FFF7F1FEFB6824331846FFF7ECFE57
:10EE800002F084F8012318461037BD4680BD00BF4C
:10EE900004ED00E080B58AB002AFF860B9601346B7
:10EEA000FB71FB68002B0BD14FF0050383F3118836
:10EEB000BFF36F8FBFF34F8F3B6100BF00BFFDE714
:10EEC000FB68BA6802FB03F3FB61FB695033184629
:10EED00002F04CF9B861BB69002B11D0BB697B61B2
:10EEE0007B6950337B61BB69002283F84620FA7945
:10EEF000BB69009313467A69B968F86800F005F8B1
:10EF0000BB6918462037BD4680BD80B584B000AFD0
:10EF1000F860B9607A60FB70BB68002B03D1BB69F5
:10EF2000BA691A6002E0BB697A681A60BB69FA685C
:10EF3000DA63BB69BA681A640121B869FFF740FF58
:10EF4000BB69FA7883F84C2000BF1037BD4680BDFE
:10EF500080B582B000AF78607B68002B0ED07B68F4
:10EF600000229A607B6800221A607B680022DA60C7
:10EF7000002300220021786800F01CF800BF083749
:10EF8000BD4680BD80B586B000AF0346FB7101234E
:10EF90007B6100233B61FB791A4639697869FFF789
:10EFA00079FFF860F868FFF7D3FFFB681846183759
:10EFB000BD4680BD80B58EB000AFF860B9607A60A4
:10EFC0003B6000237B63FB683B633B6B002B0BD1F7
:10EFD0004FF0050383F31188BFF36F8FBFF34F8F9B
:10EFE000BB6200BF00BFFDE7BB68002B03D13B6BDA
:10EFF0001B6C002B01D1012300E00023002B0BD15F
:10F000004FF0050383F31188BFF36F8FBFF34F8F6A
:10F010007B6200BF00BFFDE73B68022B03D13B6B67
:10F02000DB6B012B01D1012300E00023002B0BD16E
:10F030004FF0050383F31188BFF36F8FBFF34F8F3A
:10F040003B6200BF00BFFDE701F03EFB0346002B23
:10F0500002D17B68002B01D1012300E00023002BAB
:10F060000BD14FF0050383F31188BFF36F8FBFF30C
:10F070004F8FFB6100BF00BFFDE701F055FF3B6B09
:10F080009A6B3B6BDB6B9A4202D33B68022B29D114
:10F090003A68B968386B00F037FBF8623B6B5B6A23
:10F0A000002B10D03B6B2433184601F03DF903468A
:10F0B000002B13D03F4B4FF080521A60BFF34F8F9D
:10F0C000BFF36F8F0AE0FB6A002B07D0394B4FF07C
:10F0D00080521A60BFF34F8FBFF36F8F01F056FF5E
:10F0E000012363E07B68002B03D101F04FFF002375
:10F0F0005CE07B6B002B06D107F11403184601F08E
:10F1000077F901237B6301F041FF00F0DBFE01F0A2
:10F110000BFF3B6B93F844305BB2B3F1FF3F03D17D
:10F120003B6B002283F844203B6B93F845305BB285
:10F13000B3F1FF3F03D13B6B002283F8452001F080
:10F1400025FF3A1D07F114031146184601F066F930
:10F150000346002B24D1386B00F0CEFB0346002B76
:10F1600018D03B6B10337A681146184601F0B6F898
:10F17000386B00F059FB00F0B3FE0346002B7FF420
:10F180007CAF0C4B4FF080521A60BFF34F8FBFF330
:10F190006F8F72E7386B00F047FB00F0A1FE6CE761
:10F1A000386B00F041FB00F09BFE00231846383717
:10F1B000BD4680BD04ED00E080B590B000AFF860C2
:10F1C000B9607A603B60FB68BB63BB6B002B0BD103
:10F1D0004FF0050383F31188BFF36F8FBFF34F8F99
:10F1E000BB6200BF00BFFDE7BB68002B03D1BB6B58
:10F1F0001B6C002B01D1012300E00023002B0BD15D
:10F200004FF0050383F31188BFF36F8FBFF34F8F68
:10F210007B6200BF00BFFDE73B68022B03D1BB6BE5
:10F22000DB6B012B01D1012300E00023002B0BD16C
:10F230004FF0050383F31188BFF36F8FBFF34F8F38
:10F240003B6200BF00BFFDE701F04EFFEFF311820C
:10F250004FF0050383F31188BFF36F8FBFF34F8F18
:10F26000FA61BB61FB697B63BB6B9A6BBB6BDB6B4E
:10F270009A4202D33B68022B2FD1BB6B93F84530E7
:10F2800087F83330BB6B9B6BFB623A68B968B86B2D
:10F2900000F03AFA97F93330B3F1FF3F12D1BB6B6C
:10F2A0005B6A002B16D0BB6B2433184601F03CF888
:10F2B0000346002B0ED07B68002B0BD07B6801220D
:10F2C0001A6007E097F833300133DBB25AB2BB6BF8
:10F2D00083F845200123FB6301E00023FB637B6B84
:10F2E0007B617B6983F3118800BFFB6B1846403755
:10F2F000BD4680BD80B58CB000AFF860B9607A6063
:10F300000023FB62FB68BB62BB6A002B0BD14FF092
:10F31000050383F31188BFF36F8FBFF34F8F3B62F9
:10F3200000BF00BFFDE7BB68002B03D1BB6A1B6CAD
:10F33000002B01D1012300E00023002B0BD14FF063
:10F34000050383F31188BFF36F8FBFF34F8FFB610A
:10F3500000BF00BFFDE701F0B7F90346002B02D163
:10F360007B68002B01D1012300E00023002B0BD18F
:10F370004FF0050383F31188BFF36F8FBFF34F8FF7
:10F38000BB6100BF00BFFDE701F0CEFDBB6A9B6B18
:10F390007B627B6A002B1FD0B968B86A00F01EFA46
:10F3A0007B6A5A1EBB6A9A63BB6A1B69002B0FD02B
:10F3B000BB6A1033184600F0B7FF0346002B07D096
:10F3C0003C4B4FF080521A60BFF34F8FBFF36F8FEB
:10F3D00001F0DCFD012369E07B68002B03D101F023
:10F3E000D5FD002362E0FB6A002B06D107F1100374
:10F3F000184600F0FDFF0123FB6201F0C7FD00F09D
:10F4000061FD01F091FDBB6A93F844305BB2B3F14A
:10F41000FF3F03D1BB6A002283F84420BB6A93F804
:10F4200045305BB2B3F1FF3F03D1BB6A002283F8E2
:10F43000452001F0ABFD3A1D07F1100311461846B7
:10F4400000F0ECFF0346002B23D1B86A00F03EFA2F
:10F450000346002B17D0BB6A24337A68114618463E
:10F4600000F03CFFB86A00F0DFF900F039FD034618
:10F47000002B89D10F4B4FF080521A60BFF34F8F92
:10F48000BFF36F8F80E7B86A00F0CEF900F028FD77
:10F490007AE7B86A00F0C8F900F022FDB86A00F017
:10F4A00015FA0346002B3FF46FAF002318463037A0
:10F4B000BD4680BD04ED00E080B58EB000AF786041
:10F4C000396000237B637B68FB6200233B63FB6A3C
:10F4D000002B0BD14FF0050383F31188BFF36F8F1F
:10F4E000BFF34F8F3B6200BF00BFFDE7FB6A1B6CA1
:10F4F000002B0BD04FF0050383F31188BFF36F8F00
:10F50000BFF34F8FFB6100BF00BFFDE701F0DCF8E8
:10F510000346002B02D13B68002B01D1012300E000
:10F520000023002B0BD14FF0050383F31188BFF3A9
:10F530006F8FBFF34F8FBB6100BF00BFFDE701F0CE
:10F54000F3FCFB6A9B6BBB62BB6A002B24D0BB6ADB
:10F550005A1EFB6A9A63FB6A1B68002B04D101F0F8
:10F560005FFA0246FB6A9A60FB6A1B69002B0FD0A8
:10F57000FB6A1033184600F0D7FE0346002B07D075
:10F58000544B4FF080521A60BFF34F8FBFF36F8F11
:10F5900001F0FCFC012398E03B68002B12D13B6B8F
:10F5A000002B0BD04FF0050383F31188BFF36F8F4F
:10F5B000BFF34F8F7B6100BF00BFFDE701F0E6FCAA
:10F5C000002382E07B6B002B06D107F10C03184669
:10F5D00000F00EFF01237B6301F0D8FC00F072FC09
:10F5E00001F0A2FCFB6A93F844305BB2B3F1FF3F39
:10F5F00003D1FB6A002283F84420FB6A93F845306C
:10F600005BB2B3F1FF3F03D1FB6A002283F84520D0
:10F6100001F0BCFC3A4607F10C031146184600F015
:10F62000FDFE0346002B32D1F86A00F04FF9034685
:10F63000002B26D0FB6A1B68002B09D101F074FC5B
:10F64000FB6A9B68184601F05DF8386301F09EFC88
:10F65000FB6A24333A681146184600F03FFEF86A08
:10F6600000F0E2F800F03CFC0346002B7FF467AFAB
:10F67000184B4FF080521A60BFF34F8FBFF36F8F5C
:10F680005DE7F86A00F0D0F800F02AFC57E7F86A66
:10F6900000F0CAF800F024FCF86A00F017F90346FD
:10F6A000002B3FF44CAF3B6B002B0DD001F03CFC2A
:10F6B000F86A00F011F87862FB6A9B68796A18466C
:10F6C00001F01EF901F062FC002318463837BD46F0
:10F6D00080BD00BF04ED00E080B485B000AF78606D
:10F6E0007B685B6A002B06D07B681B6B1B68C3F1D1
:10F6F0000503FB6001E00023FB60FB68184614373C
:10F70000BD465DF8047B704780B586B000AFF860F9
:10F71000B9607A6000237B61FB689B6B3B61FB688F
:10F720001B6C002B0DD1FB681B68002B4DD1FB68B7
:10F730009B68184601F05CF87861FB6800229A60CB
:10F7400043E07B68002B19D1FB685868FB681B6C91
:10F750001A46B96802F0D5FDFB685A68FB681B6C55
:10F760001A44FB685A60FB685A68FB689B689A42B7
:10F770002BD3FB681A68FB685A6026E0FB68D868E0
:10F78000FB681B6C1A46B96802F0BBFDFB68DA68BF
:10F79000FB681B6C5B421A44FB68DA60FB68DA6842
:10F7A000FB681B689A4207D2FB689A68FB681B6C6F
:10F7B0005B421A44FB68DA607B68022B05D13B6927
:10F7C000002B02D03B69013B3B613B695A1CFB6843
:10F7D0009A637B6918461837BD4680BD80B582B0F4
:10F7E00000AF786039607B681B6C002B18D07B6899
:10F7F000DA687B681B6C1A447B68DA607B68DA68BD
:10F800007B689B689A4203D37B681A687B68DA60DE
:10F810007B68D9687B681B6C1A46386802F071FDFA
:10F8200000BF0837BD4680BD80B584B000AF7860AA
:10F8300001F07AFB7B6893F84530FB7311E07B683D
:10F840005B6A002B12D07B682433184600F06CFDF5
:10F850000346002B01D000F045FEFB7B013BDBB2F1
:10F86000FB7397F90F30002BE9DC00E000BF7B68E9
:10F87000FF2283F8452001F089FB01F055FB7B68EE
:10F8800093F84430BB7311E07B681B69002B12D0E6
:10F890007B681033184600F047FD0346002B01D06B
:10F8A00000F020FEBB7B013BDBB2BB7397F90E304F
:10F8B000002BE9DC00E000BF7B68FF2283F84420D6
:10F8C00001F064FB00BF1037BD4680BD80B584B039
:10F8D00000AF786001F028FB7B689B6B002B02D1A6
:10F8E0000123FB6001E00023FB6001F04FFBFB689C
:10F8F00018461037BD4680BD80B584B000AF786033
:10F9000001F012FB7B689A6B7B68DB6B9A4202D139
:10F910000123FB6001E00023FB6001F037FBFB6883
:10F9200018461037BD4680BD80B58EB004AFF86074
:10F93000B9607A603B607B6B002B0BD14FF0050305
:10F9400083F31188BFF36F8FBFF34F8F3B6200BF0C
:10F9500000BFFDE7BB6B002B0BD14FF0050383F31A
:10F960001188BFF36F8FBFF34F8FFB6100BF00BFE4
:10F97000FDE760233B613B69602B0BD04FF0050333
:10F9800083F31188BFF36F8FBFF34F8FBB6100BF4D
:10F9900000BFFDE73B69BB6B002B1ED07B6B002BD0
:10F9A0001BD0BB6B7B627B6A7A6B1A637B6A022219
:10F9B00083F85D20002303937B6A029307F114030D
:10F9C00001933B6B00933B687A68B968F86800F074
:10F9D00050F8786A00F0E0F801E000237B617B6971
:10F9E00018462837BD4680BD80B58CB004AFF8609E
:10F9F000B9603B601346FB80FB889B00184601F012
:10FA0000B5FB78617B69002B0ED0602001F0AEFB66
:10FA1000F861FB69002B03D0FB697A691A6305E082
:10FA2000786901F071FC01E00023FB61FB69002BA8
:10FA300017D0FB69002283F85D20FA880023039326
:10FA4000FB690293FB6A0193BB6A00933B68B96848
:10FA5000F86800F00EF8F86900F09EF80123BB6129
:10FA600002E04FF0FF33BB61BB6918462037BD464B
:10FA700080BD80B588B000AFF860B9607A603B6047
:10FA80003B6B186B7B689B001A46A52102F039FB83
:10FA90003B6B1A6B7B6803F18043013B9B00134473
:10FAA000BB61BB6923F00703BB61BB6903F00703BC
:10FAB000002B0BD04FF0050383F31188BFF36F8F3A
:10FAC000BFF34F8F7B6100BF00BFFDE7BB68002B1A
:10FAD0001FD00023FB6112E0BA68FB691344197858
:10FAE0003A6BFB69134434330A461A70BA68FB69EF
:10FAF00013441B78002B06D0FB690133FB61FB69C3
:10FB00000F2BE9D900E000BF3B6B002283F84320B4
:10FB100003E03B6B002283F83420BB6A042B01D93D
:10FB20000423BB623B6BBA6ADA623B6BBA6ADA6483
:10FB30003B6B00221A653B6B04331846FFF7ACF8A9
:10FB40003B6B18331846FFF7A7F83B6B3A6B1A610B
:10FB5000BB6AC3F105023B6B9A613B6B3A6B5A621D
:10FB60003B6B00225A653B6B00229A653B6B00227F
:10FB700083F85C203A68F968B86901F0A7F8024692
:10FB80003B6B1A60FB6A002B02D0FB6A3A6B1A606F
:10FB900000BF2037BD4680BD80B582B000AF786021
:10FBA00001F0C2F92C4B1B6801332B4A13602B4B1D
:10FBB0001B68002B09D1294A7B681360264B1B6800
:10FBC000012B10D100F0B2FC0DE0254B1B68002B7F
:10FBD00009D1224B1B68DA6A7B68DB6A9A4202D839
:10FBE0001E4A7B6813601F4B1B6801331D4A13605C
:10FBF0001C4B1A687B685A647B68DB6A01229A4056
:10FC0000194B1B681343184A13607B68DA6A134662
:10FC10009B0013449B00154A1A447B680433194621
:10FC20001046FFF746F801F0B1F90D4B1B68002BA9
:10FC30000ED00A4B1B68DA6A7B68DB6A9A4207D2ED
:10FC40000B4B4FF080521A60BFF34F8FBFF36F8F93
:10FC500000BF0837BD4680BD580600208005002043
:10FC60006406002074060020600600208405002041
:10FC700004ED00E080B584B000AF786001F054F985
:10FC80007B68002B02D1394B1B6800E07B68FB606E
:10FC9000FB6804331846FFF769F80346002B15D1BB
:10FCA000FB68DA6A324913469B0013449B000B44FD
:10FCB0001B68002B0AD1FB68DB6A012202FA03F3FE
:10FCC000DA432C4B1B6813402A4A1360FB689B6A7B
:10FCD000002B04D0FB6818331846FFF747F8264B73
:10FCE0001B680133244A1360204B1B68FA689A4250
:10FCF0000BD1FB68043319462048FEF7DAFF204B8E
:10FD00001B6801331E4A136009E01E4B1B68013B50
:10FD10001C4A1360F86800F077FC00F0A5FC01F0C5
:10FD200035F9194B1B68002B1CD0104B1B68FA6867
:10FD30009A4217D1154B1B68002B0BD04FF00503CF
:10FD400083F31188BFF36F8FBFF34F8FBB6000BF8A
:10FD500000BFFDE70E4B4FF080521A60BFF34F8F8C
:10FD6000BFF36F8F00BF1037BD4680BD80050020F8
:10FD70008405002060060020740600202C06002068
:10FD8000400600205806002064060020800600205F
:10FD900004ED00E080B584B000AF78600023FB6024
:10FDA0007B68002B18D0144B1B68002B0BD04FF036
:10FDB000050383F31188BFF36F8FBFF34F8FBB60D1
:10FDC00000BF00BFFDE700F07DF80021786800F07B
:10FDD00017FF00F085F8F860FB68002B07D1074B90
:10FDE0004FF080521A60BFF34F8FBFF36F8F00BF89
:10FDF0001037BD4680BD00BF8006002004ED00E046
:10FE000080B58AB004AF0023BB6000237B603A4614
:10FE1000391D07F108031846FEF7F2F939687B68C7
:10FE2000BA68029201930023009300230A461F49F7
:10FE30001F48FFF779FD03461E4A13601D4B1B68E0
:10FE4000002B02D001237B6101E000237B617B69F1
:10FE5000012B16D14FF0050383F31188BFF36F8F89
:10FE6000BFF34F8F3B6100BF134B4FF0FF321A605F
:10FE7000124B01221A60124B00221A6000F0B0FFF0
:10FE80000FE07B69B3F1FF3F0BD14FF0050383F324
:10FE90001188BFF36F8FBFF34F8FFB6000BF00BFB0
:10FEA000FDE700BF1837BD4680BD00BFC054010844
:10FEB000FD0401087C06002078060020640600206E
:10FEC0005C06002080B400AF044B1B680133034A7A
:10FED000136000BFBD465DF8047B704780060020BC
:10FEE00080B584B000AF0023FB600023BB60424BB1
:10FEF0001B68002B0BD14FF0050383F31188BFF370
:10FF00006F8FBFF34F8F3B6000BF00BFFDE701F075
:10FF10000BF8394B1B68013B374A1360364B1B68A3
:10FF2000002B61D1354B1B68002B5DD02EE0344B8C
:10FF3000DB68DB68FB60FB6818331846FEF716FFCA
:10FF4000FB6804331846FEF711FFFB68DB6A0122E9
:10FF50009A402C4B1B6813432A4A1360FB68DA6AE9
:10FF600013469B0013449B00274A1A44FB68043342
:10FF700019461046FEF79DFEFB68DA6A234B1B68A4
:10FF8000DB6A9A4202D3224B01221A601C4B1B6887
:10FF9000002BCCD1FB68002B01D000F065FB1D4B82
:10FFA0001B687B607B68002B10D000F065F803466F
:10FFB000002B02D0164B01221A607B68013B7B604C
:10FFC0007B68002BF1D1134B00221A60104B1B6889
:10FFD000002B09D00123BB600F4B4FF080521A60F9
:10FFE000BFF34F8FBFF36F8F00F0D0FFBB68184691
:10FFF0001037BD4680BD00BF800600205806002097
:020000040801F1
:1000000018060020600600208405002080050020DE
:100010006C0600206806002004ED00E080B483B088
:1000200000AF054B1B687B607B6818460C37BD46EC
:100030005DF8047B704700BF5C06002080B582B08D
:1000400000AF01F051F800237B60044B1B683B605C
:100050003B6818460837BD4680BD00BF5C060020DF
:1000600080B400AF034B1B681846BD465DF8047BA7
:10007000704700BF5806002080B586B000AF00234F
:100080007B614F4B1B68002B40F08F804D4B1B68F2
:1000900001333B614B4A3B6913603B69002B21D123
:1000A000494B1B681B68002B0BD04FF0050383F3F3
:1000B0001188BFF36F8FBFF34F8F3B6000BF00BF4E
:1000C000FDE7414B1B68FB60404B1B683E4A1360D9
:1000D0003E4AFB6813603E4B1B6801333C4A136089
:1000E00000F0C2FA3B4B1B683A699A4248D3364B40
:1000F0001B681B68002B04D1364B4FF0FF321A608F
:100100003EE0314B1B68DB68DB68BB60BB685B684B
:100110007B603A697B689A4203D22E4A7B681360FF
:100120002EE0BB6804331846FEF720FEBB689B6ACE
:10013000002B04D0BB6818331846FEF717FEBB68C7
:10014000DB6A01229A40244B1B681343224A136046
:10015000BB68DA6A13469B0013449B001F4A1A448B
:10016000BB68043319461046FEF7A3FDBB68DA6A84
:100170001B4B1B68DB6A9A42B9D301237B61B6E74C
:10018000174B1B68DA6A154913469B0013449B0002
:100190000B441B68012B01D901237B61114B1B68A8
:1001A000002B07D001237B6104E00F4B1B68013358
:1001B0000D4A13607B6918461837BD4680BD00BFE5
:1001C000800600205C060020100600201406002097
:1001D00070060020780600206006002084050020BC
:1001E000800500206C0600206806002080B586B0DF
:1001F00000AF334B1B68002B03D0324B01221A6037
:1002000059E0304B00221A60FFF708FF03462E4AE0
:1002100013602D4B1A682D4B1B689A4209D92C4B41
:100220001B68596D284A1068284A1268821A0A44C5
:100230005A65254B1B68254A1360264B1B68FB60DB
:10024000FB68B3FA83F3FB72FB7AC3F11F037B6194
:1002500021497A6913469B0013449B000B441B6899
:10026000002B0BD14FF0050383F31188BFF36F8F81
:10027000BFF34F8F7B6000BF00BFFDE77A69134675
:100280009B0013449B00144A13443B613B695B6829
:100290005A683B695A603B695A683B6908339A421D
:1002A00004D13B695B685A683B695A603B695B688B
:1002B000DB68074A136000BF1837BD4680BD00BF2A
:1002C000800600206C06002088060020840600209E
:1002D00080050020600600208405002080B584B0E1
:1002E00000AF786039607B68002B0BD14FF00503BD
:1002F00083F31188BFF36F8FBFF34F8FFB6000BF95
:1003000000BFFDE7074B1B68183319467868FEF7F6
:10031000F4FC0121386800F073FC00BF1037BD46C3
:1003200080BD00BF8005002080B586B000AF78603A
:100330007B68DB68DB683B613B69002B0BD14FF0CE
:10034000050383F31188BFF36F8FBFF34F8FFB60FB
:1003500000BF00BFFDE73B6918331846FEF706FDF6
:100360001D4B1B68002B1CD13B6904331846FEF75C
:10037000FDFC3B69DB6A01229A40184B1B68134362
:10038000164A13603B69DA6A13469B0013449B00CC
:10039000134A1A443B69043319461046FEF789FC98
:1003A00005E03B69183319460E48FEF782FC3B69AD
:1003B000DA6A0D4B1B68DB6A9A4205D901237B611F
:1003C0000A4B01221A6001E000237B617B69184619
:1003D0001837BD4680BD00BF8006002060060020A3
:1003E0008405002018060020800500206C060020EF
:1003F00080B483B000AF7860064B1A687B681A60DF
:10040000054B1A687B685A6000BF0C37BD465DF823
:10041000047B7047700600205C06002080B588B021
:1004200000AF786039607B68002B0BD14FF005037B
:1004300083F31188BFF36F8FBFF34F8F3B6100BF12
:1004400000BFFDE73B68002B0BD14FF0050383F3A2
:100450001188BFF36F8FBFF34F8FFB6000BF00BFEA
:10046000FDE700F061FD1D4B1B68BB617B685B68AD
:10047000BA69D31A7B613B681B68B3F1FF3F02D1B5
:100480000023FB6123E07B681A68154B1B689A42C6
:1004900007D07B685B68BA699A4202D30123FB618B
:1004A00015E03B681B687A699A420BD23B681A6870
:1004B0007B69D21A3B681A607868FFF799FF0023BE
:1004C000FB6104E03B6800221A600123FB6100F03D
:1004D0005DFDFB6918462037BD4680BD5C060020E7
:1004E0007006002080B400AF034B01221A6000BFE9
:1004F000BD465DF8047B70476C06002080B582B075
:1005000000AF786000F052F8064B1B68012BF9D958
:10051000054B4FF080521A60BFF34F8FBFF36F8FC0
:10052000F0E700BF8405002004ED00E080B582B054
:1005300000AF00237B600CE07A6813469B001344F5
:100540009B00124A13441846FEF786FB7B68013372
:100550007B607B68042BEFD90D48FEF77DFB0D48CF
:10056000FEF77AFB0C48FEF777FB0C48FEF774FBAE
:100570000B48FEF771FB0B4B054A1A600A4B054A04
:100580001A6000BF0837BD4680BD00BF840500204B
:10059000E8050020FC050020180600202C0600209D
:1005A00044060020100600201406002080B582B00A
:1005B00000AF19E000F0B8FC104BDB68DB687B6033
:1005C0007B6804331846FEF7D1FB0D4B1B68013BDB
:1005D0000B4A13600B4B1B68013B0A4A136000F087
:1005E000D5FC786800F010F8064B1B68002BE1D1B1
:1005F00000BF00BF0837BD4680BD00BF2C060020ED
:10060000580600204006002080B584B000AF786016
:100610007B6893F85D30002B08D17B681B6B184614
:1006200000F072FE786800F06FFE19E07B6893F8C6
:100630005D30012B03D1786800F066FE10E07B6826
:1006400093F85D30022B0BD04FF0050383F3118834
:10065000BFF36F8FBFF34F8FFB6000BF00BFFDE79D
:1006600000BF1037BD4680BD80B483B000AF0C4BD7
:100670001B681B68002B04D10A4B4FF0FF321A6035
:1006800008E0074B1B68DB68DB687B607B685B68A6
:10069000044A136000BF0C37BD465DF8047B704709
:1006A000100600207806002080B483B000AF054B10
:1006B0001B687B607B6818460C37BD465DF8047B81
:1006C000704700BF8005002080B483B000AF0B4BA3
:1006D0001B68002B02D101237B6008E0084B1B68DC
:1006E000002B02D102237B6001E000237B607B684A
:1006F00018460C37BD465DF8047B70476406002041
:100700008006002080B584B000AF78607B68BB6055
:100710000023FB607B68002B5ED0BB68DA6A314B3C
:100720001B68DB6A9A424ED2BB689B69002B06DBD2
:100730002C4B1B68DB6AC3F10502BB689A61BB687E
:100740005969BB68DA6A13469B0013449B00264A2A
:10075000134499422FD1BB6804331846FEF706FBB9
:100760000346002B0AD1BB68DB6A012202FA03F3BD
:10077000DA431E4B1B6813401C4A1360194B1B685D
:10078000DA6ABB68DA62BB68DB6A01229A40174BFF
:100790001B681343154A1360BB68DA6A13469B0053
:1007A00013449B00104A1A44BB6804331946104690
:1007B000FEF77FFA04E00B4B1B68DA6ABB68DA626B
:1007C0000123FB6008E0BB68DA6C064B1B68DB6A40
:1007D0009A4201D20123FB60FB6818461037BD46E0
:1007E00080BD00BF80050020840500206006002039
:1007F00080B586B000AF78607B683B6100237B6189
:100800007B68002B70D03B4B1B683A699A420BD037
:100810004FF0050383F31188BFF36F8FBFF34F8F42
:10082000FB6000BF00BFFDE73B691B6D002B0BD1D8
:100830004FF0050383F31188BFF36F8FBFF34F8F22
:10084000BB6000BF00BFFDE73B691B6D5A1E3B69E3
:100850001A653B69DA6A3B69DB6C9A4244D03B69B2
:100860001B6D002B40D13B6904331846FEF77EFA1E
:100870000346002B15D13B69DA6A1F4913469B00DA
:1008800013449B000B441B68002B0AD13B69DB6AB5
:10089000012202FA03F3DA43184B1B681340174A8C
:1008A00013603B69DA6C3B69DA623B69DB6AC3F16E
:1008B00005023B699A613B69DB6A01229A400F4B52
:1008C0001B6813430D4A13603B69DA6A13469B00A9
:1008D00013449B00084A1A443B69043319461046E6
:1008E000FEF7E7F901237B617B6918461837BD469F
:1008F00080BD00BF80050020840500206006002028
:1009000080B588B000AF786039607B68BB61012337
:100910007B617B68002B79D0BB691B6D002B0BD1F1
:100920004FF0050383F31188BFF36F8FBFF34F8F31
:10093000FB6000BF00BFFDE7BB69DB6C3A689A4211
:1009400002D93B68FB6102E0BB69DB6CFB61BB6900
:10095000DB6AFA699A4259D0BB691B6D7A699A427F
:1009600054D12C4B1B68BA699A420BD14FF0050346
:1009700083F31188BFF36F8FBFF34F8FBB6000BF4E
:1009800000BFFDE7BB69DB6A3B61BB69FA69DA62FC
:10099000BB699B69002B04DBFB69C3F10502BB69E2
:1009A0009A61BB6959693A6913469B0013449B00DD
:1009B000194A1344994229D1BB6904331846FEF7FA
:1009C000D5F90346002B0AD1BB69DB6A012202FA82
:1009D00003F3DA43114B1B681340104A1360BB69E1
:1009E000DB6A01229A400D4B1B6813430B4A1360CC
:1009F000BB69DA6A13469B0013449B00064A1A44FB
:100A0000BB69043319461046FEF753F900BF20377F
:100A1000BD4680BD800500208405002060060020C2
:100A200080B400AF074B1B68002B04D0054B1B683C
:100A30001A6D01321A65034B1B681846BD465DF8F6
:100A4000047B70478005002080B584B000AF7860DB
:100A5000396000F069FA1E4B1B689B6D002B13D1A7
:100A60001B4B1B68012283F85C203B68002B0BD0DA
:100A70000121386800F0C4F8164B4FF080521A601C
:100A8000BFF34F8FBFF36F8F00F080FA00F04CFA86
:100A90000F4B1B689B6DFB60FB68002B0CD07B68C9
:100AA000002B04D00A4B1B6800229A6504E0084B17
:100AB0001B68FA68013A9A65054B1B68002283F8A7
:100AC0005C2000F063FAFB6818461037BD4680BD15
:100AD0008005002004ED00E080B58AB000AF7860AA
:100AE00039607B68002B0BD14FF0050383F311882D
:100AF000BFF36F8FBFF34F8FBB6100BF00BFFDE738
:100B000000F0F2FA7B687B62EFF311824FF005038D
:100B100083F31188BFF36F8FBFF34F8F7A613B610F
:100B20007B693B627B6A93F85C30FB777B6A0222CD
:100B300083F85C207B6A9B6D5A1C7B6A9A65FB7FFD
:100B4000012B46D17B6A9B6A002B0BD04FF005032B
:100B500083F31188BFF36F8FBFF34F8FFB6000BF2C
:100B600000BFFDE7204B1B68002B1CD17B6A0433C0
:100B70001846FEF7FBF87B6ADB6A01229A401B4BA2
:100B80001B681343194A13607B6ADA6A13469B0099
:100B900013449B00164A1A447B6A043319461046D4
:100BA000FEF787F805E07B6A183319461148FEF70F
:100BB00080F87B6ADA6A104B1B68DB6A9A4208D9B4
:100BC0003B68002B02D03B6801221A600B4B0122CC
:100BD0001A603B6ABB60BB6883F3118800BF00BF2B
:100BE0002837BD4680BD00BF80060020600600207B
:100BF0008405002018060020800500206C060020D7
:100C000080B584B000AF78603960294B1B68FB6009
:100C1000284B1B6804331846FEF7A8F80346002B40
:100C20000BD1244B1B68DB6A012202FA03F3DA437F
:100C3000214B1B681340204A13607B68B3F1FF3FD0
:100C40000AD13B68002B07D01A4B1B6804331946A6
:100C50001A48FEF72EF826E0FA687B681344BB605A
:100C6000144B1B68BA685A60BA68FB689A4209D28A
:100C7000134B1A680F4B1B68043319461046FEF7D6
:100C80003CF810E00F4B1A680A4B1B6804331946F6
:100C90001046FEF732F80C4B1B68BA689A4202D233
:100CA000094ABB68136000BF1037BD4680BD00BF56
:100CB0005C0600208005002060060020440600201D
:100CC00014060020100600207806002080B485B0AD
:100CD00000AFF860B9607A60FB68043BFB60FB68BA
:100CE0004FF080721A60FB68043BFB60BB6823F026
:100CF0000102FB681A60FB68043BFB600C4AFB685E
:100D00001A60FB68143BFB607A68FB681A60FB683A
:100D1000043BFB60FB686FF002021A60FB68203B3B
:100D2000FB60FB6818461437BD465DF8047B7047CE
:100D3000350D010880B485B000AF00237B60134BF4
:100D40001B68B3F1FF3F0BD04FF0050383F311880D
:100D5000BFF36F8FBFF34F8FFB6000BF00BFFDE796
:100D60004FF0050383F31188BFF36F8FBFF34F8FED
:100D7000BB6000BF00BF7B68002BFCD000BF00BF82
:100D80001437BD465DF8047B704700BF08000020A3
:100D9000074B19680868B0E8F04F80F30988BFF383
:100DA0006F8F4FF0000080F311887047AFF3008021
:100DB0008005002000BF00BF08480068006880F37D
:100DC00008884FF0000080F3148862B661B6BFF364
:100DD0004F8FBFF36F8F00DF00BF00BF08ED00E053
:100DE00080B586B000AF474B1B68474A93420BD192
:100DF0004FF0050383F31188BFF36F8FBFF34F8F5D
:100E0000FB6000BF00BFFDE73E4B1B683F4A9342BB
:100E10000BD14FF0050383F31188BFF36F8FBFF33E
:100E20004F8F3B6100BF00BFFDE7394B7B617B69A2
:100E30001B78DBB27B607B69FF221A707B691B78B1
:100E4000DBB2FB70FB78DBB203F00503DAB2314BA7
:100E50001A70314B07221A6009E02F4B1B68013BC7
:100E60002D4A1360FB78DBB25B00DBB2FB70FB78D2
:100E7000DBB203F08003802BEFD0274B1B68C3F15C
:100E80000703042B0BD04FF0050383F31188BFF346
:100E90006F8FBFF34F8FBB6000BF00BFFDE71E4BDE
:100EA0001B681B021C4A13601B4B1B6803F4E063A6
:100EB000194A13607B68DAB27B691A70174B1B689A
:100EC000164A43F470231360144B1B68134A43F013
:100ED0007063136000F0DAF8114B00221A6000F022
:100EE000F9F8104B1B680F4A43F040431360FFF7BB
:100EF00063FFFFF77BF9FFF71DFF00231846183744
:100F0000BD4680BD00ED00E071C20F4170C20F41CF
:100F100000E400E08C0600209006002020ED00E0B8
:100F20000800002034EF00E080B483B000AF4FF041
:100F3000050383F31188BFF36F8FBFF34F8F7B607F
:100F400000BF104B1B6801330E4A13600D4B1B682A
:100F5000012B10D10C4B1B68DBB2002B0BD04FF0D8
:100F6000050383F31188BFF36F8FBFF34F8F3B608F
:100F700000BF00BFFDE700BF0C37BD465DF8047B36
:100F8000704700BF0800002004ED00E080B483B08B
:100F900000AF124B1B68002B0BD14FF0050383F3FE
:100FA0001188BFF36F8FBFF34F8F7B6000BF00BF0F
:100FB000FDE70A4B1B68013B084A1360074B1B689F
:100FC000002B05D100233B603B6883F3118800BFF1
:100FD00000BF0C37BD465DF8047B70470800002059
:100FE000EFF30980BFF36F8F154B1A681EF0100FD7
:100FF00008BF20ED108A20E9F04F10602DE90900AC
:101000004FF0050080F31188BFF34F8FBFF36F8F50
:10101000FFF7ECF84FF0000080F3118809BC196865
:101020000868B0E8F04F1EF0100F08BFB0EC108A4F
:1010300080F30988BFF36F8F704700BFAFF3008064
:101040008005002000BF00BF80B582B000AF4FF028
:10105000050383F31188BFF36F8FBFF34F8F7B605E
:1010600000BFFFF709F80346002B03D0064B4FF0F3
:1010700080521A6000233B603B6883F3118800BFF5
:1010800000BF0837BD4680BD04ED00E080B400AF6E
:101090000B4B00221A600B4B00221A600A4B1B6894
:1010A0000A4AA2FB03239B09094A013B1360044B34
:1010B00007221A6000BFBD465DF8047B704700BF81
:1010C00010E000E018E000E000000020D34D6210C6
:1010D00014E000E0DFF80C00016841F470010160E9
:1010E000704700BF88ED00E080B485B000AFEFF33B
:1010F0000583FB60FB680F2B15D9184AFB68134466
:101100001B78FB72164B1B78FA7A9A420BD24FF07F
:10111000050383F31188BFF36F8FBFF34F8F7B609D
:1011200000BF00BFFDE70F4B1B6803F4E0620E4BEE
:101130001B689A420BD94FF0050383F31188BFF364
:101140006F8FBFF34F8F3B6000BF00BFFDE700BF55
:101150001437BD465DF8047B704700BFF0E300E044
:101160008C0600200CED00E09006002080B58AB0CF
:1011700000AF78600023FB61FEF7A4FE5C4B1B68A8
:10118000002B01D100F030F95A4B1A687B681340EC
:10119000002B40F095807B68002B1ED008227B68D6
:1011A00013447B607B6803F00703002B15D07B683A
:1011B00023F0070308337B607B6803F00703002BF1
:1011C0000BD04FF0050383F31188BFF36F8FBFF38C
:1011D0004F8F7B6100BF00BFFDE77B68002B6FD0A6
:1011E000454B1B687A689A426AD8444B3B62434B32
:1011F0001B687B6204E07B6A3B627B6A1B687B62E4
:101200007B6A5B687A689A4203D97B6A1B68002B09
:10121000F1D1374B1B687A6A9A4251D03B6A1B68FE
:1012200008221344FB617B6A1A683B6A1A607B6A76
:101230005A687B68D21A08235B009A4220D97A6ADE
:101240007B681344BB61BB6903F00703002B0BD021
:101250004FF0050383F31188BFF36F8FBFF34F8FF8
:101260003B6100BF00BFFDE77B6A5A687B68D21A0A
:10127000BB695A607B6A7A685A60B86900F016F9EF
:101280001D4B1A687B6A5B68D31A1B4A13601A4BA2
:101290001A681B4B1B689A4203D2174B1B68184AEB
:1012A00013607B6A5A68134B1B681A437B6A5A6047
:1012B0007B6A00221A60134B1B680133114A1360CA
:1012C000FEF70EFEFB6903F00703002B0BD04FF077
:1012D000050383F31188BFF36F8FBFF34F8FFB605C
:1012E00000BF00BFFDE7FB6918462837BD4680BD3B
:1012F0009C420020B0420020A042002094420020E6
:10130000A4420020A842002080B586B000AF7860DB
:101310007B687B617B68002B4FD008235B427A6936
:1013200013447B617B693B613B695A68254B1B68B1
:101330001340002B0BD14FF0050383F31188BFF34B
:101340006F8FBFF34F8FFB6000BF00BFFDE73B69AE
:101350001B68002B0BD04FF0050383F31188BFF3FC
:101360006F8FBFF34F8FBB6000BF00BFFDE73B69CE
:101370005A68144B1B681340002B1ED03B691B6836
:10138000002B1AD13B695A680E4B1B68DB431A408D
:101390003B695A60FEF796FD3B695A680A4B1B6829
:1013A0001344094A1360386900F080F8074B1B6842
:1013B0000133064A1360FEF793FD00BF1837BD46A0
:1013C00080BD00BFB0420020A0420020AC420020FF
:1013D00080B400AF034B1B681846BD465DF8047B24
:1013E000704700BFA042002080B485B000AF4FF42A
:1013F0007053BB60274BFB60FB6803F00703002BB7
:101400000CD0FB680733FB60FB6823F00703FB602D
:10141000BA68FB68D31A1F4A1344BB60FB687B6041
:101420001D4A7B6813601C4B00225A607B68BA68B7
:101430001344FB600822FB689B1AFB60FB6823F0E7
:101440000703FB60FB68154A1360144B1B680022FE
:101450005A60124B1B6800221A607B683B603B6835
:10146000FA68D21A3B685A600C4B1A683B681A60DB
:101470003B685B680A4A13603B685B68094A136013
:10148000094B4FF000421A6000BF1437BD465DF8AB
:10149000047B704794060020944200209C42002068
:1014A000A4420020A0420020B042002080B485B0B9
:1014B00000AF7860284BFB6002E0FB681B68FB60B4
:1014C000FB681B687A689A42F7D8FB68BB60FB68C8
:1014D0005B68BA6813447A689A4208D1FB685A6814
:1014E0007B685B681A44FB685A60FB687B607B68BA
:1014F000BB607B685B68BA681A44FB681B689A42E9
:1015000018D1FB681A68154B1B689A420DD07B688E
:101510005A68FB681B685B681A447B685A60FB6802
:101520001B681A687B681A6008E00C4B1A687B68B5
:101530001A6003E0FB681A687B681A60FA687B68C7
:101540009A4202D0FB687A681A6000BF1437BD4621
:101550005DF8047B704700BF944200209C4200204D
:101560002DE9FF4757EC106B002F0C4619463B4600
:10157000BBBF07F100431F4600232D230B700D9BBB
:10158000DDF830A0914623F02008BCBF3246164655
:10159000B8F1460F05D0B8F1450F00D10134022152
:1015A00000E0032103AB019302AB009347EC106B07
:1015B0005346224600F05CFFB8F1470F054619D1AB
:1015C00019F0010F0ED000EB040900220023304671
:1015D0003946FBF7A9FA08B1CDF80C903022039BED
:1015E0004B451ED3039B0E9A5B1B2846136004B029
:1015F000BDE8F087B8F1460F00EB0409E5D10378A8
:10160000302B0AD10022002330463946FBF78CFAF2
:1016100018B9C4F10104CAF80040DAF8003099445E
:10162000D3E7591C03911A70D9E7F7B50029BABF5F
:1016300049422D232B2309290270437029DD0DF126
:1016400007031D460A271A46B1FBF7F607FB1614D7
:10165000303402F8014C0C46632C03F1FF33314661
:10166000F1DC3031941E03F8011C411C2346AB42CF
:101670000AD30DF109039B1AAC4288BF0023023341
:101680000344181A03B0F0BD13F8016B01F8016FA1
:10169000EDE7302330318370C170031DF1E70000A6
:1016A0002DE9F04F8DB00C46DDF8588016461F46E8
:1016B000054600F0AFFD036804931846FAF708FEEC
:1016C00000230A93D8F800300590073323F007036E
:1016D00003F1080294F818A0D4F800B0C8F800206C
:1016E000D3E9008929F000430793CDF81880C4E9B5
:1016F0001289DDE906019C4B4FF0FF32FBF746FAF9
:1017000070BBDDE90601984B4FF0FF32FBF720FA82
:1017100030BB0022002340464946FBF70FFA10B1C8
:101720002D2384F84330914A914BBAF1470F8CBF77
:1017300090469846032323612BF0040323604FF067
:101740000009009733460BAA2146284600F0D2F93B
:10175000013040F08D804FF0FF300DB0BDE8F08FCC
:1017600042464B4640464946FBF710FA40B14B46CD
:10177000002BBCBF2D2384F843307E4A7E4BD4E738
:1017800063680AF0DF0206925A1C3BD106236360AD
:101790004BF480620023226003930AABCDE901A3DE
:1017A00009AB0093616849EC108B0DF123032846C7
:1017B000FFF7D6FE069B0999472B804629D1C81C06
:1017C00002DB6368994241DDAAF1020A5FFA8AFAF4
:1017D0000139524604F150000991FFF726FF0A9A99
:1017E0001318012A8146236102DC2268D20701D541
:1017F000013323619DF82330002BA2D02D2384F8E0
:1018000043309EE7069A472AC2D1002BC0D101235C
:10181000BDE7BAF1650FDBD9BAF1660F18D100291F
:1018200063680BDD216113B92268D00702D501334B
:101830000B442361A1654FF00009DBE713B922686F
:10184000D20701D50233F4E70123F2E74FF0670A2C
:101850000A9B994205DB23682161D807EAD54B1C16
:10186000E7E70029D4BFC1F1020201221344E0E7F7
:1018700023685A0507D42369424631462846B847AB
:1018800001302BD167E7BAF1650F40F2DD80D4E972
:10189000120100220023FBF747F9002833D0374A12
:1018A000012331462846B84701303FF454AFDDE903
:1018B0000938434502DB2368D8070FD5DDE9042347
:1018C00031462846B84701303FF445AF4FF0000994
:1018D00008F1FF3804F11A0AC84509DC23689B07A0
:1018E00000F10381E0680B9B9842B8BF184634E7CB
:1018F0000123524631462846B84701303FF42BAF0A
:1019000009F10109E8E7099B002B39DC1B4A012397
:1019100031462846B84701303FF41DAFDDE90939AB
:1019200059EA030302D12368D907D7D5DDE9042397
:1019300031462846B84701303FF40DAF4FF0000A5A
:1019400004F11A0B099B5B42534501DC4B4693E7BC
:1019500001235A4631462846B84701303FF4FBAED2
:101960000AF1010AEEE700BFFFFFEF7FC75601084B
:10197000C3560108CF560108CB56010898580108F4
:10198000A36DDDF828A05345A8BF5346002B994608
:1019900036DC4FF0000B29EAE97904F11A02A36D55
:1019A0000693A3EB09035B4531DC099B9A453ADCBE
:1019B0002368DA0737D4099BAAEB0309069BAAEB35
:1019C00003039945A8BF9946B9F1000F33DC4FF0E6
:1019D000000829EAE97904F11A0B099BAAEB030331
:1019E000A3EB090343457FF779AF01235A463146FC
:1019F0002846B84701303FF4AEAE08F10108ECE7E5
:101A0000424631462846B8470130C2D1A3E60123F9
:101A1000314628460692B84701303FF49CAE069AFC
:101A20000BF1010BBBE7DDE9042331462846B8473B
:101A30000130C0D18FE6069A4B46424431462846D3
:101A4000B8470130C3D186E6DDF828A0BAF1010F0E
:101A500001DCDB0736D50123424631462846B8472C
:101A600001303FF478AEDDE9042331462846B8471B
:101A700001303FF470AED4E91201002200230AF1D4
:101A8000FF3AFBF751F8C0B9534608F1010231465D
:101A90002846B84701300CD15DE601235A4631464D
:101AA0002846B84701303FF456AE08F10108D0454A
:101AB000F3DB4B4604F15002DFE64FF0000804F17F
:101AC0001A0BF4E701234246E1E701234A46314677
:101AD0002846B84701303FF43EAE08F10108E368FC
