:020000040800F2
:10000000000002205D1B000861150008691500084A
:10001000711500087915000881150008000000001E
:10002000000000000000000000000000891500082A
:100030009715000800000000A5150008B31500087A
:10004000AD1B0008AD1B0008AD1B0008AD1B000870
:10005000AD1B0008AD1B0008AD1B0008AD1B000860
:10006000AD1B0008AD1B0008AD1B0008AD1B000850
:10007000AD1B0008AD1B0008AD1B0008AD1B000840
:10008000AD1B0008AD1B0008AD1B0008AD1B000830
:10009000AD1B0008AD1B0008AD1B0008AD1B000820
:1000A000AD1B0008AD1B0008AD1B0008AD1B000810
:1000B000AD1B0008AD1B0008AD1B0008AD1B000800
:1000C000AD1B0008AD1B0008AD1B0008AD1B0008F0
:1000D000AD1B0008AD1B0008AD1B0008AD1B0008E0
:1000E000AD1B0008AD1B0008AD1B0008AD1B0008D0
:1000F000AD1B0008AD1B0008AD1B0008AD1B0008C0
:10010000AD1B0008AD1B0008AD1B0008AD1B0008AF
:10011000AD1B0008AD1B0008AD1B0008AD1B00089F
:10012000AD1B0008AD1B0008AD1B0008AD1B00088F
:10013000AD1B00080000000000000000AD1B00081F
:10014000AD1B0008AD1B0008AD1B0008AD1B00086F
:10015000AD1B0008AD1B0008AD1B0008AD1B00085F
:10016000AD1B0008AD1B0008AD1B0008AD1B00084F
:10017000AD1B0008AD1B0008AD1B0008000000000F
:1001800000000000AD1B000800000000000000009F
:10019000AD1B00080000000000000000AD1B0008BF
:1001A000000000000000000000000000AD1B00087F
:1001B000AD1B0008AD1B0008AD1B0008AD1B0008FF
:0401C000AD1B00086B
:1001D00010B5054C237833B9044B13B10448AFF381
:1001E00000800123237010BD60000020000000008B
:1001F000502A000808B5034B1BB103490348AFF36D
:10020000008008BD0000000064000020502A0008A3
:1002100010F8012B11F8013B012A28BF9A42F7D0B0
:10022000D01A70470000000000000000000000002D
:1002300001F0FF01102A2BDB10F0070F08D010F897
:10024000013B013A8B422DD010F0070F42B3F6D19B
:10025000F0B441EA012141EA014122F007047FF0B4
:1002600000070023F0E80256083C85EA010586EA0B
:10027000010685FA47F5A3FA87F586FA47F6A5FA47
:1002800087F68EB9EED1F0BC01F0FF0102F0070253
:1002900032B110F8013B013A83EA010313B1F8D1FE
:1002A0000020704701387047002D06BF35460338DF
:1002B000073815F0010F07D1013015F4807F02BF18
:1002C000013015F4C03F0130F0BC0138704700BF69
:1002D00080B586B000AF78607B681B683B617B6847
:1002E00004331B68FB601A4801F07CFA72B600BF49
:1002F000184B00221A6000237B6110E0164A7B69CC
:1003000020334FF0FF3142F82310134A7B696033EA
:100310004FF0FF3142F823107B6901337B617B6929
:10032000072BEBD90D4B00225A623B69BB60BB68BF
:1003300083F3088800BF094A7B689360BFF34F8F3F
:1003400000BFBFF36F8F00BFFB68984700BFFDE79A
:10035000682A000810E000E000E100E000ED00E0A5
:1003600080B483B000AF0346FB71FB79002B01D151
:10037000044B00E0044B18460C37BD465DF8047B87
:10038000704700BF00C000080000040880B584B0BA
:1003900000AF7860374801F025FA374800F0A6FF33
:1003A0000346002B27D13549354800F05BFFF86044
:1003B0007B68DB68002B0DD1324801F013FA7B68B3
:1003C000FA68DA607B6800221A72786800F0C4F973
:1003D00000234BE07B68DB68FA689A4207D12A4821
:1003E00001F000FA7B6800221A7200233EE02748E1
:1003F00001F0F8F902E0264801F0F4F9254801F08F
:10040000F1F9254800F072FF0346002B27D123495C
:10041000234800F027FFB8607B681B69002B0DD1D3
:10042000204801F0DFF97B68BA681A617B68012215
:100430001A72786800F090F9002317E07B681B6956
:10044000BA689A4207D1184801F0CCF97B680122BA
:100450001A7200230AE0154801F0C4F902E01448BA
:1004600001F0C0F9134801F0BDF902231846103716
:10047000BD4680BD842A000800C00008F83F030084
:1004800008C00008A42A0008C82A0008EC2A0008AE
:10049000042B00081C2B000800000408F8FF0300D0
:1004A00008000408382B00085C2B0008802B00088B
:1004B000982B0008B02B000880B487B000AF78609C
:1004C0007B68FB6000237B6100233B610AE0FA68E4
:1004D0003B6913441B781A467B6913447B613B6973
:1004E00001333B613B69172BF1D97B6918461C37F7
:1004F000BD465DF8047B704780B582B000AF786080
:10050000786800F0F3FE0346002B0CBF01230023A4
:10051000DBB218460837BD4680BD000080B582B00A
:1005200000AF78607B680F4A1A607B6801229A806E
:100530007B681C22DA807B6800221A727B680022AA
:10054000DA607B6800221A617B6801225A61786850
:10055000FFF7B2FF02467B689A6100BF0837BD46CD
:1005600080BD00BF5A5AA5A590B583B000AF034621
:100570003960FB80FB881C223968184600F0EAFBD2
:100580000346002B02D04FF0FF3321E03B681B688D
:10059000114A934202D04FF0FF3319E03B689B8829
:1005A000012B02D04FF0FF3312E03B68DB881C2B9D
:1005B00002D04FF0FF330BE03B689C693868FFF7CF
:1005C0007BFF03469C4202D04FF0FF3300E0002344
:1005D00018460C37BD4690BD5A5AA5A5B0B594B083
:1005E00000AF786007F1280319460020FFF7BCFF31
:1005F000F86407F10C0319464FF48070FFF7B4FF5D
:10060000B8644B48FFF778FF034687F847304948FE
:10061000FFF772FF034687F84630FB6C002B0DD0C6
:10062000BB6C002B0AD0444801F0DCF87868FFF777
:1006300075FF786800F090F8002375E0FB6C002BE4
:100640000ED1BB6C002B0BD07B681D4607F1280434
:100650000FCC0FC594E8070085E80700002363E08E
:10066000BB6C002B0ED1FB6C002B0BD07B681D46A6
:1006700007F10C040FCC0FC594E8070085E80700CC
:10068000002351E02D4801F0ADF897F84730002BDA
:1006900014D097F8463083F00103DBB2002B0DD065
:1006A0007B681D4607F128040FCC0FC594E80700AE
:1006B00085E807007B6800221A7231E097F847301E
:1006C00083F00103DBB2002B11D097F84630002BEA
:1006D0000DD07B681D4607F10C040FCC0FC594E8C4
:1006E000070085E807007B6801221A7218E097F876
:1006F0003030002B0AD17B681D4607F128040FCC4F
:100700000FC594E8070085E8070009E07B681D46EF
:1007100007F10C040FCC0FC594E8070085E807002B
:10072000786800F019F8002318465037BD46B0BD70
:1007300000C0000800000408E42B0008102C00088A
:1007400080B582B000AF78607868FFF747FF034656
:1007500018460837BD4680BDB0B592B000AF78608E
:1007600007F1280319460020FFF7FEFE0346002B81
:1007700002D14FF4807300E00023A7F846307B6875
:1007800007F10C041D460FCD0FC495E8070084E85F
:10079000070007F10C031846FFF78EFE03467B6245
:1007A00007F10C01B7F846301C22184600F05AFB3E
:1007B000034618464837BD46B0BD000080B582B03C
:1007C00000AF7860134801F00DF87B681B7A002BAE
:1007D00001D1412300E0422319460F4801F0BEFA3F
:1007E0007B68DB6819460D4801F0B8FA7B681B6925
:1007F00019460B4801F0B2FA7B689B691946094813
:1008000001F0ACFA084800F0EDFF00BF0837BD4624
:1008100080BD00BF342C0008502C0008642C000858
:100820007C2C0008942C0008AC2C000880B400AF8D
:10083000BFF34F8F00BF064BDB6803F4E06204494F
:10084000044B1343CB60BFF34F8F00BF00BFFDE7E6
:1008500000ED00E00400FA0580B500AF024800F0AA
:10086000C1FF00BF80BD00BFC82C000880B582B0AA
:1008700000AF78600B4800F0B5FF0B4800F0B2FF06
:100880007B681B7A002B01D1412300E042231846EC
:1008900000F090FF054800F0A5FF00BF0837BD46F7
:1008A00080BD00BFB82E0008C82E0008D82E000852
:1008B00080B582B000AF78607868FFF77FFF00BF37
:1008C0000837BD4680BD000080B582B000AF7860BB
:1008D000084800F087FF7B681B7A002B01D1064B8C
:1008E00000E0064B1846FFF7F3FC00BF0837BD4693
:1008F00080BD00BFDC2E000800C000080000040816
:1009000080B500AF034800F06DFF0348FFF7E0FC3F
:1009100000BF80BDF42E000800C0000880B500AF05
:10092000034800F05FFF0348FFF7D2FC00BF80BD23
:100930000C2F00080000040880B582B000AF78607A
:100940007B680022DA607868FFF706FF034800F052
:1009500049FF00BF0837BD4680BD00BF242F0008F7
:1009600080B582B000AF78607B6800221A61786839
:10097000FFF7F2FE034800F035FF00BF0837BD4621
:1009800080BD00BF3C2F000880B582B000AF78600A
:100990007B681B7A002B0CBF01230023DBB21A46B5
:1009A0007B681A727868FFF7D7FE034800F01AFFD9
:1009B00000BF0837BD4680BD542F000880B500AF8A
:1009C000044800F00FFF4FF45031034800F0CCFB17
:1009D00000BF80BD6C2F000800C0000880B500AFCC
:1009E000044800F0FFFE4FF48021034800F0BCFBF8
:1009F00000BF80BD802F00080000040880B582B0D1
:100A000000AF7860054800F048FF7868FFF794FF72
:100A100000F04EFF00BF0837BD4680BD942F000890
:100A200080B500AF024800F0DDFEFFF7FFFE00BF1B
:100A3000AC2F000880B582B000AF786039604749BC
:100A40007868FFF7E5FB0346002B02D1FFF704FFB0
:100A500081E043497868FFF7DBFB0346002B03D1B5
:100A60003868FFF703FF76E03E497868FFF7D0FB70
:100A70000346002B03D13868FFF71AFF6BE03A49B1
:100A80007868FFF7C5FB0346002B03D13868FFF7F2
:100A90001BFF60E035497868FFF7BAFB0346002B7F
:100AA00002D1FFF72DFF56E031497868FFF7B0FB20
:100AB0000346002B02D1FFF731FF4CE02D49786847
:100AC000FFF7A6FB0346002B03D13868FFF734FF7E
:100AD00041E029497868FFF79BFB0346002B03D1CF
:100AE0003868FFF73DFF36E024497868FFF790FB50
:100AF0000346002B03D13868FFF746FF2BE020495F
:100B00007868FFF785FB0346002B02D1FFF756FFFD
:100B100021E01C497868FFF77BFB0346002B02D1DC
:100B2000FFF75CFF17E018497868FFF771FB034691
:100B3000002B03D13868FFF761FF0CE01349786898
:100B4000FFF766FB0346002B02D1FFF769FF02E0C7
:100B50000F4800F047FE0837BD4680BDC02F000893
:100B6000C82F0008D02F0008DC2F0008E42F000851
:100B7000EC2F0008F42F0008003000080C300008AB
:100B8000143000081C300008243000082C30000805
:100B90003430000880B400AF0B4B1B680A4A43F0A6
:100BA0000103136000BF084B1B6803F00203002B16
:100BB000F9D0054B00229A60044B00221A6000BF56
:100BC000BD465DF8047B704700380240003C02409F
:100BD00080B400AF00BF064B9B6903F00203002BFB
:100BE000F9D100BF00BFBD465DF8047B704700BF70
:100BF0000054004080B500AFFFF7EAFF074B1B68C9
:100C0000064A43F48073136000BF044B5B6903F032
:100C10000103002BF9D000BF00BF80BD005400408D
:100C200080B483B000AF03460A46FB711346BB7124
:100C3000FB795B00BA79002A01D0012200E0002292
:100C40000F4913430B6100BF0D4B5A6940F2024339
:100C50001340002BF8D00A4B5B6903F48063002B30
:100C600006D0074B5B69064A23F48063536101E0B9
:100C7000034B9B690C37BD465DF8047B704700BF92
:100C80000054004080B400AF054B1B68044A43F495
:100C90000073136000BFBD465DF8047B704700BF62
:100CA0000054004080B400AF174B1B6B164A43F052
:100CB00002031363154B1B68144A23F4704313603B
:100CC000124B1B68114A43F4204313600F4B1B6AFD
:100CD0000E4A43F0884313620C4B5B680B4A43F0A7
:100CE000C0035360094B9B68084A43F47043936008
:100CF000064BDB68054A23F47043D36000BFBD4652
:100D00005DF8047B704700BF0038024000040240D9
:100D100080B500AFFFF7C6FF0C4B1B6C0B4A43F4CA
:100D2000001313640A4B10225A60094B5022DA61F7
:100D3000074B11221A62064B1B68054A43F4806375
:100D400043F0010313600023184680BD00380240C1
:100D50000054004080B582B000AF03463960FB808C
:100D60001346BB803B68002B02D0BB88002B02D10E
:100D70004FF0FF3349E0FFF73DFF00215020FFF720
:100D80004FFFFB881B0A9BB2DAB2224B1A6100BFED
:100D9000204B5B6903F08003002BF9D0FB88DAB2AB
:100DA0001C4B1A6100BF1B4B5B6903F08003002BD7
:100DB000F9D0FFF71FFF01215020FFF731FF16E0A8
:100DC000BB88002B05D1134B1B68124A23F48063A8
:100DD000136000BF0F4B5B6903F04003002BF9D099
:100DE0000C4B19693B685A1C3A60CAB21A70BB882E
:100DF0005A1EBA80002BE3D1FFF744FF054B1B6856
:100E0000044A43F480631360002318460837BD4644
:100E100080BD00BF0054004080B500AFFFF7EAFE80
:100E20000F4BA0221A6100BF0D4B5A6940F20243DA
:100E30001340002BF8D00A4B5B6903F00203002B30
:100E400004D0074B9B69FFF71DFF06E0044B5B696D
:100E5000034A23F480635361E0E700BF80BD00BF15
:100E60000054004080B584B000AF03463960FB8079
:100E70001346BB803B68002B02D0BB88002B55D1AA
:100E80004FF0FF3356E0FB8803F03F037B817B8903
:100E9000C3F14003FB81FA89BB889A4201D9BB8820
:100EA000FB81FFF7A7FE00215020FFF7B9FEFB886A
:100EB0001B0A9BB2DAB2214B1A6100BF1F4B5B6960
:100EC00003F08003002BF9D0FB88DAB21B4B1A61C8
:100ED00000BF1A4B5B6903F08003002BF9D000239D
:100EE000BB810FE0BB893A6813441A78134B1A612F
:100EF00000BF124B5B6903F08003002BF9D0BB8964
:100F00000133BB81BA89FB899A42EBD3FFF7BAFE62
:100F1000FFF782FFFA88FB891344FB80FB893A685C
:100F200013443B60BA88FB89D31ABB80BB88002B73
:100F3000A9D1002318461037BD4680BD005400409B
:100F400080B400AF074B1B69002B05DA054B064A3E
:100F50005A60044B054A5A6000BFBD465DF8047BE9
:100F6000704700BF003C024023016745AB89EFCDCD
:100F700080B400AF054B1B69044A43F00043136182
:100F800000BFBD465DF8047B704700BF003C0240D7
:100F900080B582B000AFFFF7D3FF1F4A3B4612680F
:100FA000114619800233120C1A7000237B6029E06D
:100FB00000BF1A4BDB6803F48033002BF9D13A46AB
:100FC0007B6813441B78DB00144A43F0020313616F
:100FD000124B1B69114A43F48033136100BF0F4B5E
:100FE000DB6803F48033002BF9D10C4BDB6803F092
:100FF000F203002B03D0FFF7BBFF002308E07B6860
:1010000001337B607B68022BD2D9FFF7B1FF01234C
:1010100018460837BD4680BD54300008003C0240E9
:1010200080B588B000AFF860B9607A60FFF788FFDC
:101030000023FB6146E04FF0FF337B617A68FB6978
:10104000D31ABB61BB69032B05D9BA68FB6913448A
:101050001B687B6108E0BA68FB69D11807F11403CB
:10106000BA69184600F04BFF00BF1C4BDB6803F465
:101070008033002BF9D1194B1B69184A43F0010347
:101080001361FA68FB6913441A467B69136000BF59
:10109000124BDB6803F48033002BF9D10F4B1B6933
:1010A0000E4A23F001031361FA68FB6913441A68BE
:1010B0007B699A4203D0FFF75BFF002309E0FB69DD
:1010C0000433FB61FA697B689A42B4D3FFF750FF9F
:1010D000012318462037BD4680BD00BF003C0240BA
:1010E00080B483B000AF78607B68184A934201D225
:1010F000002324E07B68164A934201D201231EE0BC
:101100007B68144A934201D2022318E07B68124A9A
:10111000934201D8032312E07B68104A934201D81E
:1011200004230CE07B680E4A934201D8052306E0B5
:101130007B680C4A934201D8062300E00723184637
:101140000C37BD465DF8047B704700BF00400008C7
:101150000080000800C00008FFFF0008FFFF010832
:10116000FFFF0308FFFF050880B586B000AF786079
:1011700039607868FFF7B4FF38617A683B681344D8
:10118000013B1846FFF7ACFFF8601F4B1B69002BB3
:1011900005DA1D4B1D4A5A601B4B1D4A5A603B69BC
:1011A0007B6122E000BF184BDB6803F48033002B27
:1011B000F9D17B69DB00144A43F002031361124B3F
:1011C0001B69114A43F48033136100BF0E4BDB6887
:1011D00003F48033002BF9D10B4B1B690A4A23F02F
:1011E000020313617B6901337B617A69FB689A4270
:1011F000D8D9054B1B69044A43F00043136100BF73
:101200001837BD4680BD00BF003C02402301674542
:10121000AB89EFCD80B485B000AF78600B46FB7032
:10122000FB781B067A6853407B600023FB730DE05C
:101230007B68002B04DA7B685A00094B534001E0BD
:101240007B685B007B60FB7B0133FB73FB7B072BC5
:10125000EED97B6818461437BD465DF8047B7047AD
:10126000B71DC10480B586B000AF786039604FF01B
:10127000FF337B617B68FB6000233B610BE0FA6816
:101280003B6913441B7819467869FFF7C3FF7861FF
:101290003B6901333B613A693B689A42EFD37B6912
:1012A000DB4318461837BD4680BD80B584B000AF1B
:1012B000786039604FF0FF33FB600023BB600BE0C8
:1012C0007A68BB6813441B781946F868FFF7A2FFD9
:1012D000F860BB680133BB60BA683B689A42EFD3E1
:1012E000FB68DB4318461037BD4680BD80B485B02F
:1012F00000AF78607B681B68FB607B6804331B6809
:10130000BB60FB68002B02D0BB68002B01D101231E
:1013100022E0FB68B3F1005F03D3FB68114A9342FC
:1013200001D9022318E0FB6803F00703002B01D06A
:10133000032311E0BB68B3F1006F03D3BB680A4A13
:10134000934201D9042307E0BB6803F00103002B9B
:1013500001D1052300E0002318461437BD465DF88F
:10136000047B7047000002200000080880B500AF31
:10137000FFF710FC00F002FAFFF7CAFC00BF80BDC7
:1013800080B500AF054800F02DFA054800F02AFAB4
:10139000044800F027FA00BF80BD00BF58300008A5
:1013A00084300008B030000880B582B000AF144827
:1013B000FFF79CFF0346FB711248FFF797FF0346B8
:1013C000BB71114800F00EFA104800F00BFAFB79DF
:1013D000002B01D10E4B00E00E4B184600F002FA34
:1013E0000D4800F0FFF9BB79002B01D1084B00E05C
:1013F000084B184600F0F6F900BF0837BD4680BD1F
:1014000000C0000800000408D8300008E8300008D8
:10141000F4300008FC3000080831000880B582B0C4
:1014200000AF0346FB71FB79002B02D0012B0DD0DE
:101430001CE0124800F0D6F9114B1B7A1846FEF753
:101440008FFF03461846FEF743FF13E00D4800F0F8
:10145000C9F90B48FFF780F9094B1B7A1846FEF7CC
:101460007FFF03461846FEF733FF03E0064800F00F
:10147000B9F900BF00BF0837BD4680BD1431000870
:101480007C000020303100085831000880B592B04F
:1014900000AF00237B64234800F0A4F9FFF7DCF9D8
:1014A000214800F09FF900F0B3F9034687F8433074
:1014B00097F843300D2B03D097F843300A2B1FD1F8
:1014C0003A467B6C134400221A707B6C002B0CD1C3
:1014D0001648FEF75BFF03461A46154B1A70144B6D
:1014E0001B781846FFF79AFF04E03B460F49184661
:1014F000FFF7A0FA00237B640E4800F073F910E0B8
:1015000097F84330184600F055F97B6C3E2BCADC47
:101510007B6C5A1C7A6448333B4497F8432003F8A9
:10152000482CC0E774310008903100087C0000208E
:1015300098000020AC31000880B500AFFFF716FF1F
:10154000FFF71EFF0548FFF749F80448FFF736F993
:10155000FFF72AFFFFF79AFF00BFFDE77C0000209E
:1015600080B400AF00BFFDE780B400AF00BFFDE76F
:1015700080B400AF00BFFDE780B400AF00BFFDE75F
:1015800080B400AF00BFFDE780B400AF00BFBD4630
:101590005DF8047B704780B400AF00BFBD465DF8C6
:1015A000047B704780B400AF00BFBD465DF8047B8C
:1015B000704780B500AF00F0FBFA00BF80BD80B57A
:1015C00086B000AFF860B9607A6000237B610AE002
:1015D000AFF300800146BB685A1CBA60CAB21A70E9
:1015E0007B6901337B617A697B689A42F0DB7B68B7
:1015F00018461837BD4680BD80B586B000AFF8608C
:10160000B9607A6000237B6109E0BB685A1CBA604C
:101610001B78184600F0CEF87B6901337B617A694C
:101620007B689A42F1DB7B6818461837BD4680BD5F
:1016300080B483B000AF78604FF0FF3318460C37AA
:10164000BD465DF8047B704780B483B000AF78601E
:1016500039603B684FF400525A60002318460C373B
:10166000BD465DF8047B704780B483B000AF7860FE
:10167000012318460C37BD465DF8047B704780B4E3
:1016800085B000AFF860B9607A600023184614375F
:10169000BD465DF8047B704780B586B000AF7860CA
:1016A000144A154BD31A7B617B693B61134B1B6852
:1016B000002B02D1114B124A1A60104B1A687B683A
:1016C00013443A699A4207D200F0ECFB03460C221D
:1016D0001A604FF0FF3309E0084B1B68FB60074BB3
:1016E0001A687B681344054A1360FB68184618376C
:1016F000BD4680BD00000220000400009C000020C8
:10170000F001002080B400AF064BD3F88830054AC2
:1017100043F47003C2F8883000BFBD465DF8047B17
:10172000704700BF00ED00E080B400AF114B1B6BB1
:10173000104A43F0010313630F4B1B680E4A23F05A
:10174000F00313600C4B1B680B4A43F0A0031360BB
:10175000094B1B6A084A23F47F431362064B1B6A3A
:10176000054A43F4EE43136200BFBD465DF8047BB7
:10177000704700BF003802400000024080B500AF53
:10178000FFF7D2FF094B1B6C084A43F40033136484
:10179000074B8A229A60064B0C22DA60044BDB6806
:1017A000034A43F40053D36000BF80BD00380240B9
:1017B0000044004080B483B000AF0346FB7100BF1B
:1017C000074B1B6803F08003002BF9D0044AFB7918
:1017D000536000BF0C37BD465DF8047B704700BF07
:1017E0000044004080B582B000AF786006E07B68BE
:1017F0005A1C7A601B781846FFF7DCFF7B681B7861
:10180000002BF4D100BF00BF0837BD4680BD0000EB
:1018100080B400AF00BF074B1B6803F02003002B10
:10182000F9D0044B5B68DBB21846BD465DF8047B1B
:10183000704700BF0044004080B400AFBFF34F8F3B
:1018400000BF064BDB6803F4E0620449044B13431A
:10185000CB60BFF34F8F00BF00BFFDE700ED00E09E
:101860000400FA0590B585B000AF786039600023B8
:10187000FB6009E07A68FB68D418FFF7C9FF0346EC
:101880002370FB680133FB60FA683B689A42F1D32E
:10189000012318461437BD4690BD80B582B000AF15
:1018A00078607868FFF79EFF00BF0837BD4680BDAF
:1018B00080B5D0B000AF0023C7F83C317C4BC7F8EF
:1018C00038317C48FFF7E9FF07F59073102118467F
:1018D000FFF7C8FF034683F00103DBB2002B01D002
:1018E0000023E0E0D7F82031734A934204D07348D4
:1018F000FFF7D3FF0023D6E0D7F82431002B04D024
:10190000D7F82431B3F5503F04D96D48FFF7C5FF30
:101910000023C8E06B48FFF7C0FFFFF739FB034621
:1019200083F00103DBB2002B04D06748FFF7B5FF5B
:101930000023B8E06548FFF7B0FF45E04FF480733F
:10194000C7F83431D7F82421D7F83C31D31AFF2B0C
:1019500006D8D7F82421D7F83C31D31AC7F8343148
:1019600007F12003D7F834111846FFF77BFF034631
:1019700083F00103DBB2002B04D05548FFF78DFF45
:10198000002390E007F12003D7F834211946D7F857
:101990003801FFF745FB034683F00103DBB2002B60
:1019A00004D04C48FFF779FF00237CE0D7F83821BA
:1019B000D7F834311344C7F83831D7F83C21D7F879
:1019C00034311344C7F83C31D7F82431D7F83C21DF
:1019D0009A42B3D34048FFF760FF4048FFF75DFFEE
:1019E000D7F82431083B19463D48FFF75EFCC7F89D
:1019F0003001D7F82831D7F830219A421BD0394826
:101A0000FFF74BFF3B1D1846FEF79AFE0346002BDF
:101A10000FD107F5A073A3F59E735B6923F0020253
:101A200007F5A073A3F59E735A613B1D1846FEF798
:101A300093FE002337E02C48FFF72FFF2B48FFF7DA
:101A40002CFFD7F82831D7F82C211146184600F082
:101A500055F8034683F00103DBB2002B04D0244881
:101A6000FFF71BFF00231EE02248FFF716FF07F5D4
:101A7000A073A3F5A07300221A600AE007F5A07313
:101A8000A3F5A0731B685A1C07F5A073A3F5A073F8
:101A90001A6007F5A073A3F5A0731B68164A93425A
:101AA000ECD9FFF7C9FE184607F5A077BD4680BD03
:101AB00000C00008B43100085A5AA5A5D831000862
:101AC000F4310008103200082832000844320008BF
:101AD000603200087C32000898320008B0320008FA
:101AE00008C00008C8320008DC320008EC320008E8
:101AF00010330008303300089F86010080B58AB09B
:101B000000AF7860396007F10C031846FEF718FE45
:101B10000346002B01D000231BE000233B7500236C
:101B20007B757B68BB613B689BB23B823B6A23F061
:101B300004033B623B6A43F002033B6207F10C0380
:101B40001846FEF709FE0346002B0CBF01230023B5
:101B5000DBB218462837BD4680BD0000DFF834D020
:101B6000FFF7D0FD0C480D490D4A002302E0D45880
:101B7000C4500433C4188C42F9D30A4A0A4C0023D7
:101B800001E013600432A242FBD300F091F9FFF7A9
:101B9000D3FC7047000002200000002060000020FD
:101BA0009833000860000020F0010020FEE70000EC
:101BB00080B400AF064B1B781A46064B1B681344D3
:101BC000044A136000BFBD465DF8047B704700BF48
:101BD00000000020A0000020002310B50446C0E94A
:101BE0000033C0E90433836081814366C28183612D
:101BF000194608225C3000F006F90D4B63620D4B6C
:101C0000A3620D4BE3620D4B23630D4B24629C4298
:101C100006D003F16802944202D0D0339C4205D131
:101C200004F15800BDE8104000F066B910BD00BFD7
:101C3000811D0008A31D0008DB1D0008FF1D000812
:101C4000A4000020024A0349034800F069B800BF1D
:101C500004000020B12700081400002041680C4B4C
:101C6000994210B5044601D000F0A2FDA168094BCD
:101C7000994202D0204600F09BFDE168064B994254
:101C800004D02046BDE8104000F092BD10BD00BF5A
:101C9000A40000200C0100207401002010B50B4BA3
:101CA0000B4C0C4A1A60204600220421FFF794FFD7
:101CB00004F1680001220921FFF78EFF04F1D00032
:101CC0000222BDE810401221FFF786BFDC01002090
:101CD000A4000020451C0008014800F00EB900BF18
:101CE000E5010020014800F009B900BFE50100202E
:101CF00010B50446FFF7F0FF236A1BB1BDE81040A2
:101D0000FFF7F0BF044B2362044B1B68002BF5D197
:101D1000FFF7C4FFF2E700BF5D1C0008DC010020F4
:101D20002DE9F8430746884614460026D4E9019574
:101D3000B9F1010905D52468002CF7D13046BDE87A
:101D4000F883AB89012B07D9B5F90E30013303D0E5
:101D500029463846C04706436835E9E70FB407B55A
:101D6000064904AB086853F8042B8168019300F01E
:101D7000F7F903B05DF804EB04B0704710000020E1
:101D800010B50C46B1F90E1000F068F80028ABBF92
:101D9000636DA3891B1823F48053ACBF6365A381D3
:101DA00010BD2DE9F0411F468B89DB0505460C4629
:101DB000164605D5B1F90E100223002200F03CF8BA
:101DC000A389B4F90E1023F48053A38132463B4615
:101DD0002846BDE8F04100F053B810B50C46B1F903
:101DE0000E1000F029F8431CA38915BF606523F489
:101DF000805343F48053A38118BFA38110BDB1F970
:101E00000E1000F009B802440346934200D1704717
:101E100003F8011BF9E7000038B5064D002304461E
:101E200008462B60FFF704FC431C02D12B6803B16A
:101E3000236038BDE001002038B5074D0446084650
:101E4000114600222A601A46FFF719FC431C02D1F2
:101E50002B6803B1236038BDE001002038B5074D81
:101E600004460846114600222A601A46FFF7A7FBDF
:101E7000431C02D12B6803B1236038BDE001002070
:101E800038B5074D04460846114600222A601A4616
:101E9000FFF7B2FB431C02D12B6803B1236038BDAE
:101EA000E0010020014B1868704700BF10000020BF
:101EB00070B50D4D0D4C641BA4100026A64209D12F
:101EC0000B4D0C4C00F0C4FD641BA4100026A64270
:101ED00005D170BD55F8043B98470136EEE755F83B
:101EE000043B98470136F2E790330008903300082E
:101EF00090330008943300087047704770470A44D5
:101F0000914200F1FF3300D1704710B511F8014B39
:101F100003F8014F9142F9D110BD000038B50546D4
:101F2000002941D051F8043C0C1F002BB8BFE41825
:101F300000F0E0F81D4A136833B963601460284666
:101F4000BDE8384000F0DCB8A34208D92068211869
:101F50008B4201BF19685B6809182160EDE71A46DA
:101F60005B680BB1A342FAD911685018A0420BD19B
:101F700020680144501883421160E0D118685B6802
:101F8000536008441060DAE702D90C232B60D6E7CF
:101F9000206821188B4204BF19685B68636004BF26
:101FA000091821605460CAE738BD00BFEC01002069
:101FB00070B50F4E0C463168054611B900F0B4FCFF
:101FC00030602146284600F0AFFC431C03D14FF09F
:101FD000FF34204670BDC41C24F00304A042F8D096
:101FE000211A284600F0A0FC0130F2D1EFE700BF33
:101FF000E80100202DE9F843CD1C25F00305083544
:102000000C2D38BF0C25002D064601DBA94204D952
:102010000C2333600020BDE8F883DFF8D48000F0A3
:1020200069F8D8F800301C4644BB29463046FFF713
:10203000BFFF431C044658D1D8F800402746002F64
:1020400043D1002C4BD023683946304604EB0309BA
:1020500000F06AFC814542D121686D1A294630465C
:10206000FFF7A6FF01303AD023682B442360D8F84D
:1020700000305A6862BBC8F800700FE02268521B3B
:1020800020D40B2A17D96119A342256018BF5960C3
:10209000636808BFC8F8001062514B60304600F01A
:1020A0002FF804F10B00231D20F00700C21A1CBFFB
:1020B0001B1AA350AFE76268A3420CBFC8F8002008
:1020C0005A60EBE723466468AEE73C467F68B6E7B4
:1020D0001A465B68A342FBD100235360DEE70C2362
:1020E0003360304600F00CF894E70560D6E700BF97
:1020F000EC0100200148FFF700BF00BFE401002011
:102100000148FFF7FBBE00BFE40100209368013BDC
:10211000002B10B4936008DA9469A34201DB0A290A
:1021200003D15DF8044B00F06BBB1368581C1060C2
:10213000197008465DF8044B7047F8B506460F461F
:102140001446D518AC4201D1002007E014F8011B59
:102150003A463046FFF7DAFF431CF3D1F8BD0000E2
:102160002DE9F04F0D469DB014469846064618B12D
:10217000036A0BB9FFF7BCFD6B6ED90705D4AB89B9
:102180009A0502D4A86DFFF7B8FEAB891B0701D5ED
:102190002B699BB92946304600F070FB70B16B6E1D
:1021A000DC0704D54FF0FF301DB0BDE8F08FAB89E0
:1021B0009805F7D4A86DFFF7A1FEF3E70023099374
:1021C00020238DF82930CDF80C803023DFF8AC8146
:1021D0008DF82A304FF0010923469A4613F8012B57
:1021E0000AB1252AF9D1BAEB040B0BD05B46224683
:1021F00029463046FFF7A1FF013000F0A780099A79
:102200005A4409929AF80030002B00F09F80002376
:102210004FF0FF32CDE905230AF1010A0493079339
:102220008DF853301A935446052214F8011B534875
:10223000FDF7FEFF049AD8B9D10644BF20238DF8DC
:102240005330130744BF2B238DF853309AF80030D6
:102250002A2B15D0079A544600204FF00A0C21462D
:1022600011F8013B303B092B4BD9B0B1079214E078
:10227000A0EB080309FA03F313430493A246D2E741
:10228000039B191D1B680391002BBBBF5B4242F0EF
:10229000020207930793B8BF049223782E2B0AD12A
:1022A00063782A2B32D1039B1A1D1B68039243EAE1
:1022B000E37302340593DFF8D4A02178032250465B
:1022C000FDF7B6FF38B1049BA0EB0A004022824024
:1022D00013430134049314F8011B29488DF8281086
:1022E0000622FDF7A5FF00283FD0264B1BBB039B12
:1022F000073323F0070308330393099B3B440993F7
:102300006AE70CFB02320C460120A8E700230134E7
:10231000059319464FF00A0C204610F8012B303A6D
:10232000092A03D9002BC6D00591C4E70CFB012173
:1023300004460123F0E703AB00932A46124B04A99D
:102340003046AFF300800746781CD6D16B6ED907B4
:1023500005D4AB899A0502D4A86DFFF7CFFDAB89F0
:102360005B063FF51FAF09981EE703AB00932A46B3
:10237000054B04A9304600F079F8E4E7543300082F
:102380005E330008000000003B2100085A330008BB
:102390002DE9F047164698468A680B69DDF82090CB
:1023A0009342B8BF1346336091F8432007460C466A
:1023B0000AB1013333602368990642BF33680233A0
:1023C0003360256815F0060506D104F1190AE368A3
:1023D00032689B1AAB4226DC94F843302268003BFB
:1023E00018BF012392062BD404F14302414638461C
:1023F000C84701301ED02368226903F00603042B6E
:1024000002BFE5683368ED1AA3680CBF25EAE575DD
:1024100000259342C4BF9B1AED1800261A34B5421A
:102420001AD1002008E00123524641463846C847E9
:10243000013003D14FF0FF30BDE8F0870135C6E72A
:10244000E1185A1C302081F84300224494F84510CA
:1024500082F843100233C7E701232246414638463B
:10246000C8470130E6D00136D9E700002DE9FF4723
:102470000F7E0C9E782F914680460C469A4601F1BD
:10248000430207D8622F0AD8002F00F0D180582FBE
:1024900000F0B88004F1420684F842703AE0A7F1F7
:1024A0006303152BF6D801A151F823F00525000888
:1024B0001925000895240008952400089524000893
:1024C0009524000819250008952400089524000883
:1024D00095240008952400081726000843250008C5
:1024E000D125000895240008952400083926000805
:1024F0009524000843250008952400089524000829
:10250000D925000833681A1D1B68326004F14206A1
:1025100084F8423001239CE033682068191D316043
:10252000060601D51D6803E04506FBD5B3F900504A
:10253000002D03DA2D236D4284F8433058480A23D6
:1025400011E021683368080653F8045B02D4490699
:1025500048BFADB26F2F5248336014BF0A2308231F
:10256000002184F843106668A660002E05DB216810
:102570002E4321F0040121604BD01646B5FBF3F148
:1025800003FB1157C75D06F8017D2F46BB420D4680
:10259000F4D9082B0BD12368DF0708D523696168BC
:1025A0009942DEBF302306F8013C06F1FF36921B4C
:1025B0002261CDF800A04B4603AA21464046FFF712
:1025C000E7FE01304AD14FF0FF3004B0BDE8F0879C
:1025D000236843F0200323603248782784F845704D
:1025E000236831681F0651F8045B02D45F0648BFB8
:1025F000ADB23160D90744BF43F0200323601DB161
:102600001023ADE72648E9E7236823F02003236081
:10261000F6E71646BDE7336825686169181D306026
:102620002E061B6801D5196002E06806FBD51980EB
:10263000002323611646BCE733681A1D32601E680A
:10264000626800213046FDF7F3FD08B1801B606031
:1026500063682361002384F84330AAE72369324684
:1026600049464046D0470130ADD023689B0713D47C
:10267000E068039B9842B8BF1846A6E7012332469C
:1026800049464046D04701309DD00135E368039963
:102690005B1AAB42F2DCEBE7002504F11906F5E723
:1026A0006533000876330008B1F90C202DE9F041BC
:1026B000160705460C4654D44B68002B02DC0B6C05
:1026C000002B48DDE66A002E45D0002312F480522C
:1026D0002F68216A2B6030D0626DA389590705D518
:1026E0006368D21A636B0BB1236CD21A0023E66ABB
:1026F000216A2846B047431CA38906D129681D29B1
:102700002BD82A4ACA40D60727D500226260D904AE
:102710002269226004D5421C01D12B6803B960658F
:10272000616B2F60B9B104F14403994202D028468D
:10273000FFF7F4FB002363630DE001232846B04755
:102740000246501CC9D12B68002BC6D01D2B01D0CE
:10275000162B1ED12F60002022E043F040031BB255
:102760001BE00F69002FF6D093070E6808BF4B6976
:102770000F6018BF0023A6EB07088B60B8F1000FAD
:10278000E9DD216AA66A43463A462846B047002852
:1027900008DCB4F90C3043F04003A3814FF0FF3064
:1027A000BDE8F0810744A8EB0008E7E701004020FE
:1027B00038B50B6905460C4613B90025284638BDC7
:1027C00018B1036A0BB9FFF793FAB4F90C30002B78
:1027D000F3D0626ED00704D4990502D4A06DFFF740
:1027E0008CFB28462146FFF75FFF636EDA0705463C
:1027F000E4D4A3899B05E1D4A06DFFF77FFBDDE75F
:10280000F8B50E461446054618B1036A0BB9FFF732
:102810006FFAA369A360A3891A0701D5236943B995
:102820002146284600F02AF818B14FF0FF37384605
:10283000F8BD23682269981A6369F6B28342374665
:1028400005DC21462846FFF7B3FF0028EDD1A36839
:10285000013BA36023685A1C22601E706269431CFE
:102860009A4204D0A389DB07E1D50A2EDFD12146A5
:102870002846FFF79DFF0028D9D0D6E738B5294B69
:10288000054618680C4618B1036A0BB9FFF730FA11
:10289000B4F90C30190722D4DA0607D409222A60C9
:1028A00043F04003A3814FF0FF3033E0580712D5C7
:1028B000616B41B104F14403994202D02846FFF70D
:1028C0002DFB00236363A38923F02403A38100234A
:1028D000636023692360A38943F00803A38123690C
:1028E0004BB9A38903F42073B3F5007F03D02146CD
:1028F000284600F04FF8B4F90C3013F001020AD06A
:102900000022A26062695242A261226942B913F0B8
:102910008000C5D138BD990758BF6269A260F4E74D
:102920000020F7E71000002038B5064D00230446CC
:1029300008462B60FEF7B0FE431C02D12B6803B1A2
:10294000236038BDE001002070B50C46B1F90E10CF
:10295000002996B015461E460DDAA38913F0800FA4
:102960004FF0000114BF40234FF48063002031601A
:102970002B6016B070BD6A4600F048F80028ECDB0A
:10298000019901F47041A1F50053594259414FF4A6
:102990008063EBE78B89F7B59D0706460C4607D5A4
:1029A00004F14703236023610123636103B0F0BD99
:1029B00001AB6A46FFF7C8FF009F0546394630461F
:1029C000FFF718FB48B9B4F90C309A05EED423F0A0
:1029D000030343F00203A381E2E7A389206043F0ED
:1029E0008003A381019BC4E904075BB1B4F90E1015
:1029F000304600F01DF828B1A38923F0030343F00B
:102A00000103A381A3891D43A581CFE738B5074DF5
:102A100000230446084611462B60FEF715FE431CB2
:102A200002D12B6803B1236038BD00BFE001002054
:102A300038B5064D0023044608462B60FEF714FE09
:102A4000431C02D12B6803B1236038BDE001002094
:102A5000F8B500BFF8BC08BC9E467047F8B500BF8B
:082A6000F8BC08BC9E4670475B
:102A68004A756D70696E6720746F206170706C694B
:102A7800636174696F6E0D0A00000000426F6F7425
:102A8800206465636973696F6E3A2070726F62695A
:102A98006E6720536C6F742D410D0A00536C6F7470
:102AA8002D4120666972737420626F6F742C2065E3
:102AB8006E726F6C6C696E67204352430D0A00009A
:102AC800536C6F742D4120435243204F4B20E286B4
:102AD8009220626F6F74696E6720536C6F742D411A
:102AE8000D0A0000536C6F742D4120435243206D32
:102AF80069736D617463680D0A000000536C6F742C
:102B08002D4120766563746F7220696E76616C69F9
:102B1800640D0A0046616C6C696E67206261636BC4
:102B280020746F20536C6F742D420D0A0000000052
:102B3800536C6F742D4220666972737420626F6FD4
:102B4800742C20656E726F6C6C696E6720435243FB
:102B58000D0A0000536C6F742D4220435243204FDE
:102B68004B20E2869220626F6F74696E6720536C07
:102B78006F742D420D0A0000536C6F742D42204370
:102B88005243206D69736D617463680D0A0000001B
:102B9800536C6F742D4220766563746F7220696E72
:102BA80076616C69640D0A004E6F2076616C696409
:102BB800206669726D7761726520666F756E642034
:102BC800E286922073746179696E6720696E20626B
:102BD8006F6F746C6F616465720D0A004D65746186
:102BE800646174613A206E6F6E6520666F756E64FD
:102BF8002C206372656174696E672064656661750F
:102C08006C74730D0A0000004D6574616461746131
:102C18003A207265736F6C76696E67206475616CB3
:102C280020636F706965730D0A0000002D2D2D2D2E
:102C380020424F4F54204D45544144415441202D8A
:102C48002D2D2D0D0A00000041637469766520530F
:102C58006C6F74203A2025630D0A0000435243200C
:102C6800536C6F74204120203A2030782530386C1E
:102C7800580D0A0043524320536C6F7420422020A1
:102C88003A2030782530386C580D0A00436865635F
:102C98006B73756D2020203A2030782530386C58B9
:102CA8000D0A00002D2D2D2D2D2D2D2D2D2D2D2DE9
:102CB8002D2D2D2D2D2D2D2D2D2D2D0D0A00000006
:102CC8000D0A417661696C61626C6520636F6D6D98
:102CD800616E64733A0D0A2068656C7020202020AC
:102CE8002020202020202D2053686F7720746869C9
:102CF800732068656C700D0A20696E666F2020204D
:102D0800202020202020202D2053686F77206D65FB
:102D18007461646174612073756D6D6172790D0AF7
:102D2800206D6574615F64756D7020202020202DF2
:102D38002044756D702066756C6C206D65746164D7
:102D48006174610D0A20626F6F742020202020209A
:102D5800202020202D20426F6F74206163746976D3
:102D68006520736C6F740D0A20626F6F745F612049
:102D7800202020202020202D20466F7263652062AD
:102D88006F6F7420536C6F742D410D0A20626F6F42
:102D9800745F6220202020202020202D20466F7282
:102DA800636520626F6F7420536C6F742D420D0A37
:102DB800206372635F72657365745F612020202DE4
:102DC80020436C65617220536C6F742D412043520F
:102DD800430D0A206372635F72657365745F6220D6
:102DE80020202D20436C65617220536C6F742D4236
:102DF800204352430D0A20737769746368202020AA
:102E080020202020202D20546F67676C6520616387
:102E18007469766520736C6F740D0A20657261732E
:102E2800655F61202020202020202D2045726173BD
:102E38006520536C6F742D4120666C6173680D0AB0
:102E48002065726173655F62202020202020202D7C
:102E580020457261736520536C6F742D4220666C37
:102E68006173680D0A2075706461746520202020E4
:102E7800202020202D204669726D776172652075AB
:102E88007064617465202855415254290D0A2072D6
:102E980065626F6F7420202020202020202D205371
:102EA800797374656D2072657365740D0A0000008E
:102EB8000D0A5B424F4F5420494E464F5D0D0A00A4
:102EC8002041637469766520536C6F74203A200042
:102ED8000D0A0000426F6F74696E67206163746940
:102EE800766520736C6F740D0A0000004D616E7575
:102EF800616C20626F6F7420536C6F742D410D0AE2
:102F0800000000004D616E75616C20626F6F742067
:102F1800536C6F742D420D0A00000000536C6F74DF
:102F28002D412043524320636C65617265640D0A2C
:102F380000000000536C6F742D42204352432063FD
:102F48006C65617265640D0A000000004163746974
:102F5800766520736C6F7420737769746368656431
:102F68000D0A000045726173696E6720536C6F74B7
:102F78002D410D0A0000000045726173696E6720DB
:102F8800536C6F742D420D0A00000000456E746585
:102F980072696E6720757064617465206D6F646511
:102FA8000D0A00005265626F6F74696E672073794D
:102FB8007374656D0D0A000068656C700000000090
:102FC800696E666F000000006D6574615F64756D01
:102FD80070000000626F6F7400000000626F6F7411
:102FE8005F610000626F6F745F6200006372635F0D
:102FF80072657365745F61006372635F72657365A0
:10300800745F620073776974636800006572617346
:10301800655F610065726173655F62007570646108
:10302800746500007265626F6F740000556E6B6E98
:103038006F776E20636F6D6D616E642E20547970AA
:1030480065202768656C70270D0A000003040500D9
:103058000D0A3D3D3D3D3D3D3D3D3D3D3D3D3D3DFB
:103068003D3D3D3D3D3D3D3D3D3D3D3D3D3D3D3D88
:103078003D3D3D3D3D3D0D0A000000002020202043
:10308800202020204145474953465720424F4F545E
:103098004C4F414445522020202020202020202031
:1030A80020200D0A000000003D3D3D3D3D3D3D3DD9
:1030B8003D3D3D3D3D3D3D3D3D3D3D3D3D3D3D3D38
:1030C8003D3D3D3D3D3D3D3D3D3D3D3D0D0A000005
:1030D800496D6167652073616E6974793A0D0A00FC
:1030E8002020536C6F742041203A20004F4B0D0A6A
:1030F80000000000494E56414C49440D0A000000AA
:103108002020536C6F742042203A2000426F6F7465
:10311800696E672061637469766520736C6F742EBD
:103128002E2E0D0A00000000526F6C6C6261636BFA
:10313800207472696767657265642E2053776974B5
:103148006368696E6720736C6F742E0D0A00000047
:1031580053746179696E6720696E20626F6F746C51
:103168006F616465722E0D0A000000000D0A2D2D96
:103178002D20426F6F746C6F6164657220434C49F7
:10318800202D2D2D0D0A0000507265737320454EB9
:1031980054455220746F20626F6F742E0D0A3E20C2
:1031A800000000000D0A3E2000000000424C3A20BA
:1031B80057616974696E6720666F72207570646103
:1031C8007465206865616465722E2E2E0D0A0000F4
:1031D800424C3A20496E76616C696420757064616E
:1031E8007465206D616769630D0A0000424C3A20DE
:1031F800496E76616C696420696D616765207369E1
:103208007A650D0A00000000424C3A20457261734D
:10321800696E6720536C6F7420412E2E2E0D0A00A4
:10322800424C3A20466C6173682065726173652070
:103238006661696C65640D0A00000000424C3A2022
:10324800526563656976696E6720696D6167652E89
:103258002E2E0D0A00000000424C3A2055415254CF
:103268002072656365697665206661696C65640DC1
:103278000A000000424C3A20466C61736820707264
:103288006F6772616D206661696C65640D0A000084
:10329800424C3A20496D61676520726563656976BD
:1032A80065640D0A00000000424C3A2056657269B8
:1032B8006679696E67204352432E2E2E0D0A000050
:1032C800424C3A20435243206D69736D61746368C0
:1032D8000D0A0000424C3A20435243204F4B0D0A3E
:1032E80000000000424C3A204D61726B696E672005
:1032F800536C6F742D412061732070656E64696E24
:10330800672E2E2E0D0A0000424C3A204D6574613E
:103318006461746120757064617465206661696CAC
:1033280065640D0A00000000424C3A205570646143
:10333800746520636F6D706C6574652C20726562AE
:103348006F6F74696E672E2E2E0D0A00232D302B99
:103358002000686C4C00656667454647003031328E
:1033680033343536373839414243444546003031E5
:103378003233343536373839616263646566000044
:0833880088CEFF7F0100000068
:04339000F50100083B
:04339400D10100085B
:10339800010000000000000003000000A40000205D
:1033A8001400002000000000A40000200C010020F0
:1033B8007401002000000000000000000000000070
:1033C80000000000000000000000000000000000F5
:1033D80000000000000000000000000000000000E5
:1033E80000000000000000000000000000000000D5
:0400000508001B5D77
:00000001FF
