:020000040803EF
:10E000000000022029E50308B5E40308BDE4030885
:10E01000C5E40308CDE40308D5E4030800000000CC
:10E02000000000000000000000000000F1E803080C
:10E03000DDE403080000000021E90308EBE4030825
:10E0400079E5030879E5030879E5030879E503082C
:10E0500079E5030879E5030879E5030879E503081C
:10E0600079E5030879E5030879E5030879E503080C
:10E0700079E5030879E5030879E5030879E50308FC
:10E0800079E5030879E5030879E5030879E50308EC
:10E0900079E5030879E5030879E5030879E50308DC
:10E0A00079E5030879E5030879E5030879E50308CC
:10E0B00079E5030879E5030879E5030879E50308BC
:10E0C00079E5030879E5030879E5030879E50308AC
:10E0D00079E5030879E5030819E4030879E50308FD
:10E0E00079E5030879E5030879E5030879E503088C
:10E0F00079E5030879E5030879E5030879E503087C
:10E1000079E5030879E5030879E5030879E503086B
:10E1100079E5030879E5030879E5030879E503085B
:10E1200079E5030879E5030879E5030879E503084B
:10E1300079E50308000000000000000079E503080D
:10E1400079E5030879E5030879E5030879E503082B
:10E1500079E5030879E5030879E5030879E503081B
:10E1600079E5030879E5030879E5030879E503080B
:10E1700079E5030879E5030879E503080000000064
:10E180000000000079E50308000000000000000026
:10E1900079E50308000000000000000079E50308AD
:10E1A00000000000000000000000000079E5030806
:10E1B00079E5030879E5030879E5030879E50308BB
:04E1C00079E50308F2
:10E1D00010B5054C237833B9044B13B10448AFF3A1
:10E1E00000800123237010BD040000200000000007
:10E1F00014EA030808B5034B1BB103490348AFF306
:10E20000008008BD000000000800002014EA030898
:10E2100080B483B000AF0346FB7197F90730002B41
:10E220000BDBFB7903F01F02074997F907305B0905
:10E23000012000FA02F241F8232000BF0C37BD464E
:10E240005DF8047B704700BF00E100E080B483B05C
:10E2500000AF03463960FB7197F90730002B0ADBEA
:10E260003B68DAB20C4997F907301201D2B20B447D
:10E2700083F800230AE03B68DAB20849FB7903F02F
:10E280000F03043B1201D2B20B441A7600BF0C37C5
:10E29000BD465DF8047B704700E100E000ED00E062
:10E2A00080B400AF144B1B6B134A43F0010313639C
:10E2B000124B1B68114A23F0F00313600F4B1B68CD
:10E2C0000E4A43F0A00313600C4B9B680B4A43F0CB
:10E2D000F0039360094B1B6A084A23F47F431362DF
:10E2E000064B1B6A054A43F4EE43136200BFBD466A
:10E2F0005DF8047B704700BF003802400000024018
:10E3000080B582B000AF7860194B1B6C184A43F49B
:10E3100000331364174BDB68164A23F40053D360B1
:10E320007B685B0803F5740303F5105311497A68A1
:10E33000B3FBF2F38B600F4BDB680E4A43F00C0328
:10E34000D3600C4BDB680B4A43F02003D360094BCE
:10E35000DB68084A43F40053D3602620FFF758FFD8
:10E3600002212620FFF772FF00BF0837BD4680BD9F
:10E37000003802400044004080B582B000AF7860B1
:10E3800000210A4B0A46A3F88220084B0A46A3F84C
:10E390008020064B002283F88420FFF781FF7868F5
:10E3A000FFF7AEFF00BF0837BD4680BD200000204C
:10E3B00080B483B000AF0346FB7100BF074B1B68FE
:10E3C00003F08003002BF9D0044AFB79536000BFAF
:10E3D0000C37BD465DF8047B704700BF0044004029
:10E3E00080B582B000AF78600DE07B681B780A2BA7
:10E3F00002D10D20FFF7DCFF7B685A1C7A601B7886
:10E400001846FFF7D5FF7B681B78002BEDD100BFC6
:10E4100000BF0837BD4680BD80B483B000AF1A4B43
:10E420001B6803F02003002B27D0174B5B68FB71A0
:10E43000164BB3F880309BB201335A4203F07F038E
:10E4400002F07F0258BF5342BB80104BB3F88230BA
:10E450009BB2BA889A4204D10C4B012283F88420E3
:10E460000BE00A4BB3F880309BB21946074AFB79A0
:10E470005354064ABB88A2F8803000BF0C37BD4613
:10E480005DF8047B704700BF00440040200000207E
:10E4900080B500AF4FF4E130FFF76EFF0348FFF7A0
:10E4A0009FFF0348FFF79CFF00BFFDE72CEA03082E
:10E4B00050EA030880B400AF00BFFDE780B400AFAE
:10E4C00000BFFDE780B400AF00BFFDE780B400AF40
:10E4D00000BFFDE780B400AF00BFFDE780B400AF30
:10E4E00000BFBD465DF8047B704780B500AF00F00B
:10E4F00045F800F0DBF90346012B01D000F044FAA7
:10E5000000BF80BD80B400AF064BD3F88830054A09
:10E5100043F47003C2F8883000BFBD465DF8047B49
:10E52000704700BF00ED00E0DFF834D0FFF7EAFFEE
:10E530000C480D490D4A002302E0D458C45004335E
:10E54000C4188C42F9D30A4A0A4C002301E0136034
:10E550000432A242FBD300F039FAFFF799FF70476B
:10E560000000022000000020040000207CEA0308D4
:10E570000400002064010020FEE7000080B400AF2A
:10E58000064B1B781A46064B1B681344044A13605B
:10E5900000BFBD465DF8047B704700BF000000204F
:10E5A000A800002080B485B000AF786039607B6837
:10E5B0005B68FB603B68FA685A60FB689A683B6876
:10E5C0009A60FB689B683A685A60FB683A689A6090
:10E5D0003B687A681A617B681B685A1C7B681A6002
:10E5E00000BF1437BD465DF8047B704780B485B02A
:10E5F00000AF78607B681B69FB607B685B687A684A
:10E6000092689A607B689B687A6852685A60FB6877
:10E610005B687A689A4203D17B689A68FB685A60A3
:10E620007B6800221A61FB681B685A1EFB681A602F
:10E63000FB681B6818461437BD465DF8047B7047BD
:10E6400080B586B000AF00237B614F4B1B68002B69
:10E6500040F08F804D4B1B6801333B614B4A3B6957
:10E6600013603B69002B21D1494B1B681B68002BB1
:10E670000BD04FF0500383F31188BFF36F8FBFF3BC
:10E680004F8F3B6000BF00BFFDE7414B1B68FB6045
:10E69000404B1B683E4A13603E4AFB6813603E4B8A
:10E6A0001B6801333C4A136000F0E0F83B4B1B68E9
:10E6B0003A699A4248D3364B1B681B68002B04D139
:10E6C000364B4FF0FF321A603EE0314B1B68DB687F
:10E6D000DB68BB60BB685B687B603A697B689A42B9
:10E6E00003D22E4A7B6813602EE0BB6804331846C1
:10E6F000FFF77CFFBB689B6A002B04D0BB68183314
:10E700001846FFF773FFBB68DB6A01229A40244B6F
:10E710001B681343224A1360BB68DA6A13469B00E6
:10E7200013449B001F4A1A44BB6804331946104621
:10E73000FFF738FFBB68DA6A1B4B1B68DB6A9A423B
:10E74000B9D301237B61B6E7174B1B68DA6A154919
:10E7500013469B0013449B000B441B68012B01D9FB
:10E7600001237B61114B1B68002B07D001237B61C8
:10E7700004E00F4B1B6801330D4A13607B69184698
:10E780001837BD4680BD00BF600100204401002055
:10E790003C01002040010020580100205C010020C5
:10E7A00048010020B0000020AC00002054010020EF
:10E7B0005001002080B487B000AF274B1B68002BAE
:10E7C00003D0264B01221A6040E0244B00221A603D
:10E7D000234B1B68FB60FB68B3FA83F3FB72FB7A85
:10E7E000C3F11F037B611F497A6913469B001344E1
:10E7F0009B000B441B68002B0BD14FF0500383F39D
:10E800001188BFF36F8FBFF34F8F7B6000BF00BFD6
:10E81000FDE77A6913469B0013449B00114A134499
:10E820003B613B695B685A683B695A603B695A685F
:10E830003B6908339A4204D13B695B685A683B697B
:10E840005A603B695B68DB68074A136000BF1C378E
:10E85000BD465DF8047B7047600100205401002034
:10E8600048010020B0000020AC00002080B483B03C
:10E8700000AF0C4B1B681B68002B04D10A4B4FF0F8
:10E88000FF321A6008E0074B1B68DB68DB687B60BF
:10E890007B685B68044A136000BF0C37BD465DF8B7
:10E8A000047B70473C0100205C01002080B483B0F1
:10E8B00000AF0B4B1B68002B02D101237B6008E0EB
:10E8C000084B1B68002B02D102237B6001E0002370
:10E8D0007B607B6818460C37BD465DF8047B70474B
:10E8E0004C0100206001002000000000000000003A
:10E8F000074B19680868B0E8F04F80F30988BFF348
:10E900006F8F4FF0000080F311887047AFF30080E5
:10E91000AC00002000BF00BF0000000000000000AD
:10E92000EFF30980BFF36F8F154B1A681EF0100FBD
:10E9300008BF20ED108A20E9F04F10602DE9090092
:10E940004FF0500080F31188BFF34F8FBFF36F8FEC
:10E95000FFF730FF4FF0000080F3118809BC196801
:10E960000868B0E8F04F1EF0100F08BFB0EC108A36
:10E9700080F30988BFF36F8F704700BFAFF300804B
:10E98000AC00002000BF00BF80B582B000AF4FF0E8
:10E99000500383F31188BFF36F8FBFF34F8F7B60FA
:10E9A00000BFFFF74DFE0346002B03D0064B4FF090
:10E9B00080521A6000233B603B6883F3118800BFDC
:10E9C00000BF0837BD4680BD04ED00E070B50D4DB9
:10E9D0000D4C641BA4100026A64209D10B4D0C4C13
:10E9E00000F018F8641BA4100026A64205D170BDE3
:10E9F00055F8043B98470136EEE755F8043B984735
:10EA00000136F2E774EA030874EA030874EA0308BB
:10EA100078EA0308F8B500BFF8BC08BC9E4670470A
:0CEA2000F8B500BFF8BC08BC9E4670476B
:10EA2C000D0A5B416567697346572D4150505D2057
:10EA3C00426F6F742053746167652031204F4B0D0A
:10EA4C000A000000436C6F636B2C20566563746F77
:10EA5C00722C20526573657420636F6E6669726DDB
:08EA6C0065642E0D0A00000094
:04EA7400F5E10308BD
:04EA7800D1E10308DD
:04EA7C000100000095
:040000050803E529DE
:00000001FF
